:020000040800F2
:1000000050700020AD0200081D5700081D4F000869
:1000100085560008650A0008978300080000000064
:10002000000000000000000000000000ED010008DA
:100030004B0D00080000000049020008455D000863
:10004000C7020008C7020008C7020008C70200086C
:10005000C7020008C7020008C7020008C70200085C
:10006000C7020008C7020008C7020008B10A00085A
:10007000BD0A0008C90A0008D50A0008C70200081E
:10008000C702000800000000C7020008C7020008FD
:100090002D830008510D00085D0D0008C7020008FF
:1000A000C7020008C7020008ED5D0008C70200088B
:1000B000C7020008C7020008C7020008C7020008FC
:1000C000C7020008C7020008C7020008C7020008EC
:1000D000C7020008C7020008C7020008C7020008DC
:1000E000C7020008C7020008C7020008C7020008CC
:1000F000C7020008C7020008C7020008000000008D
:1001000000000000C702000800000000C70200084D
:10011000C702000800000000C7020008C70200086C
:10012000C7020008C7020008C7020008C70200088B
:10013000C70200080000000000000000C70200081D
:10014000C7020008C702000800000000000000000D
:10015000000000000000000000000000000000009F
:10016000000000000000000000000000C7020008BE
:10017000C7020008000000000000000000000000AE
:1001800000000000C702000800000000000000009E
:10019000000000000000000000000000000000005F
:1001A0000000000000000000C7020008C7020008AD
:1001B000C7020008C7020008C702000800000000CC
:1001C00000000000C702000800000000000000005E
:1001D000C7020008C7020008DFF80CD000F01EFBC1
:1001E000004800476D8D0008507000202C4B1968A6
:1001F0000868B0E8F04F80F30988BFF36F8F4FF0C5
:10020000000080F311887047000000000848006873
:10021000006880F308884FF0000080F3148862B60D
:1002200061B6BFF34F8FBFF36F8F00DF00BF00BF1A
:1002300008ED00E0DFF80C00016841F47001016096
:10024000704700BF88ED00E0EFF30980BFF36F8FC8
:10025000134B1A681EF0100F08BF20ED108A20E91A
:10026000F04F106009B44FF0500080F31188BFF3D5
:100270004F8FBFF36F8F09F06DF94FF0000080F3DF
:10028000118809BC19680868B0E8F04F1EF0100F1B
:1002900008BFB0EC108A80F30988BFF36F8F7047F6
:1002A00088000020EFF30580704700000648804773
:1002B00006480047FEE7FEE7FEE7FEE7FEE7FEE74B
:1002C000FEE7FEE7FEE7FEE7DD5D0008D901000876
:1002D0002DE9F05F0546002092469B46884606467B
:1002E000814640241BE0284641464746224600F00E
:1002F000DFF853465A46C01A914110D311461846AA
:10030000224600F0C6F82D1A67EB01084F46224638
:100310000120002100F0BDF817EB00094E41201E1E
:10032000A4F10104DFDC484631462A464346BDE8D5
:10033000F09F40EA01039B0703D009E008C9121FA0
:1003400008C0042AFAD203E011F8013B00F8013B8F
:10035000521EF9D27047D2B201E000F8012B491EBB
:10036000FBD270470022F6E710B513460A46044652
:100370001946FFF7F0FF204610BD421C10F8011B84
:100380000029FBD1801A70472DE9F04D81EA030462
:1003900004F0004B21F0004514464FF0000A23F012
:1003A000004150EA050220D054EA01021DD0C5F3F5
:1003B0000A570246C5F31303C1F31300C1F30A56EB
:1003C00040F4801543F48013A7EB0608101BD646B3
:1003D00008F2FD3873EB050002D308F1010801E0D3
:1003E00092185B41B8F1000F03DA00200146BDE826
:1003F000F08D00204FF48011064684460EE0171B56
:1004000073EB050705D3121B63EB050306434CEAA8
:10041000010C49084FEA300092185B4150EA01078D
:10042000EDD152EA030012D082EA040083EA05010A
:10043000084305D0101BAB4106D20122002306E081
:1004400000224FF0004302E06FF0010253101AEB5C
:1004500006004CEB085110EB0A0041EB0B01BDE824
:10046000F04D00F035B830B50B4601460020202293
:10047000012409E021FA02F59D4205D303FA02F5B1
:10048000491B04FA02F52844151EA2F10102F1DC11
:1004900030BD202A04DB203A00FA02F10020704728
:1004A0009140C2F1200320FA03F3194390407047B2
:1004B000202A04DB203A21FA02F00021704721FAB9
:1004C00002F3D040C2F12002914008431946704720
:1004D00010B5141E73F1000408DA401C41F100014C
:1004E00092185B411A4301D120F0010010BD2DE9A3
:1004F000F04D92469B4611B1B1FA81F202E0B0FA9A
:1005000080F220329046FFF7C4FF04460F4640EACF
:100510000A0041EA0B0153465A46084313D01146DC
:1005200053EA010019D0C8F140025046FFF7C0FF5E
:1005300005460E46504659464246FFF7AAFF084375
:1005400005D0012004E020463946BDE8F08D0020AA
:10055000054346EAE0762C4337430A986305E40AEC
:10056000A0EB08000022FD0A44EA47540A3002D5F5
:1005700000200146E9E7010510196941DDE9084558
:1005800000196941BDE8F04DA2E72DE9FE4F804614
:1005900081EA0300C00F0C46009021F0004123F0D7
:1005A0000045B8EB0200A94105D2404621469046DD
:1005B0001C460B46024623F00040104347D0270D4F
:1005C000C7F30A00C3F30A510290401A0190402871
:1005D0006BDAC3F3130040F4801B0098924620B1FD
:1005E0000023D2EB030A63EB0B0B01985946C0F1D1
:1005F00040025046FFF74DFF06460D46504659460D
:10060000019A00F01DF910EB08006141002487EA0F
:10061000115284EAE7731A4340D0009A62B3019AF8
:10062000012A4FEA075215DC001B61EB02014FF073
:10063000004202EA0752CDE90042001C41F5801158
:1006400032462B46FFF753FF03B0BDE8F08F40461C
:100650002146F9E7001B61EB0201001C41F5801304
:1006600000185B412018A2F5001747EB030140EA90
:10067000D570B6196D4111E06D084FEA360645EAAE
:10068000C0754FEA0752001B61EB0201001C41F5E7
:10069000801149084FEA30000019514132462B467B
:1006A00003B0BDE8F04FFFF713BF009801224000F0
:1006B0000023D0EB020263EBE073009821464FEA7F
:1006C000E074B8EB000061EB0401E9E783F000435C
:1006D0005BE781F0004158E72DE9FE4F81EA030412
:1006E00004F0004421F0004100944FF0000B23F08F
:1006F000004350EA01045ED052EA03045BD0C3F326
:100700000A54C1F30A552C44A4F2F3340194A0FB1B
:100710000254C1F3130141F48011C3F3130343F4F2
:10072000801301FB024400FB034E840A970A44EA4B
:10073000815447EA8357A4FB076802958D0A05FB9D
:1007400007854FEA932C04FB0C542705029D4FEAC2
:10075000065847EA1637B5EB08056EEB070C870E0F
:10076000920E47EA811742EA8312A7FB0201B6EB19
:100770000B0164EB00042B0D43EA0C335E1844EBD1
:100780001C50DA465146E7FB0201C5F313044FEA59
:100790000B3343EA14534FEA0432019C43EA060345
:1007A000A4F10C040294009CCDE900B4FFF79FFE75
:1007B00003B0BDE8F08F00200146F9E7C1F30A520B
:1007C000C1F3130140F2FF3341F480119A4202DA7F
:1007D00000200146704740F233439A42A2F233426E
:1007E00002DC5242FFF764BEFFF753BE30B5041E71
:1007F00071F1000404DB4FF00044404264EB01015E
:10080000141E73F1000405DB1C464FF000435242F6
:1008100063EB0403994208BF904230BD064C074D7C
:1008200006E0E06840F0010394E8070098471034C0
:10083000AC42F6D3FFF7D4FCB89B0008D89B000865
:10084000202A06DBCB17203A41FA02F043EAE07394
:1008500006E041FA02F3D040C2F120029140084381
:100860001946704770B58C1810F8015B15F0070336
:1008700001D110F8013B2A1106D110F8012B03E039
:1008800010F8016B01F8016B5B1EF9D12B0705D441
:100890000023521E0DD401F8013BFAE710F8013B8A
:1008A000CB1A921C03E013F8015B01F8015B521EA6
:1008B000F9D5A142D8D3002070BD10B5846AE16D8E
:1008C00011F0500F06D0E16DC90625D5204600F085
:1008D000CFFF10BDE06D40F40070E0652068016856
:1008E000090716D504F050FB78B12068C068800471
:1008F00000280ADBE06D20F48070E065E06DC00444
:1009000003D4E06D40F00100E065204600F0AEFF4A
:1009100010BDC0688007EBE7616D496BBDE8104012
:10092000084710B5806AC16D41F04001C165016E94
:1009300041F00401016600F09BFF10BD10B5806A14
:1009400000F095FF10BD000070B504460068816896
:10095000C1F3400504F00CFB48B345BB2068816837
:1009600001F00D01012914D18168124A1140891C3E
:10097000816021680320086001F0C4FE054612E092
:1009800001F0C0FE401B02280DD920688068C00716
:1009900009D0E06D40F01000E065206E40F00100ED
:1009A0002066012070BD20688068C007E8D1002063
:1009B00070BD0000C0FFFF7FF8B504460020009026
:1009C000206804F0D5FAE8BB20688168214A11420A
:1009D0002ED18168D6433140491C81601E48806811
:1009E00000F0E07000020DD51C481D490068B0FB06
:1009F000F1F0401C00EB4000800000E0401E009041
:100A00000028FBD101F07EFE05461CE004F0B0FAA0
:100A100020B9206881683140491C816001F072FE74
:100A2000401B02280FD920680068C043C0070AD0C5
:100A3000E06D40F01000E065206E40F0010020669F
:100A40000120F8BD04E020680168C943C907DDD171
:100A50000020F6E73F0000800003005084000020E3
:100A6000400D0300FEE700207047002070470000A3
:100A700010B500220449054806F0E5FA0449034888
:100A800006F0D8FA002010BD701D0020A014002030
:100A90007019002010B50146034806F0CBFA024851
:100AA00006F090FA002010BDA0140020002070472E
:100AB000014801F0E1B80000A40D0020014801F058
:100AC000DBB800006C0B0020014801F0D5B8000035
:100AD000980E0020014801F0CFB80000F80E002069
:100AE0000D4902688A4201D20C4901E00B492031CC
:100AF000D2B21423083AB2FBF3F2436C02F01F02A5
:100B000023F003031944816404498031C164012145
:100B1000914001657047000008040240000802404F
:100B20000179074A02EB81024265054A4432491EB7
:100B3000826501F01F0201219140C16570470000EC
:100B4000FC08024030B5D0E913456560446D14B12E
:100B5000D0E91645656090F8444004F01F05012473
:100B6000AC40056C6C60046863608368102B03689C
:100B700003D099600068C26030BD9A600068C160AF
:100B800030BD0000074808B540680090014606489F
:100B90000269914202D2C168491CC1600099016199
:100BA00008BD0000001000E0300200200A48416843
:100BB0000A4AD2ED000A4268521AF8EE601A01EEB3
:100BC000102AB8EE411A60EE211AB4EEE11AF1EEE5
:100BD00010FAF0D370470000001000E0300200204F
:100BE00010B500F03FF80B499FED0B1A08688A8892
:100BF00000EB4003C3EBC01002EBC00000EE100A94
:100C0000C88800EE900AB8EE400AF8EE600A00EEDE
:100C1000810A10BD600200206F12833A0D490A68F4
:100C200042F080720A600C4900224A600B6843F06F
:100C300001030B6009494FF47A734843B0FBF3F3A7
:100C40000749C1E90003054BB0FBF3F0C1E902021B
:100C500070470000FCED00E0001000E040420F0093
:100C6000300200202DE9F843224840680090FFF749
:100C700089FF214C00270098E1684FF0FF323D4684
:100C8000E1FB0205C4E90E05D4F8008006464246A1
:100C90003B462946FFF71CFB0246A2FB083CC4E981
:100CA000060101FB08C002FB0701F01A65EB010514
:100CB000C4E9080504F130080646C8F80020D4F855
:100CC000049000234A462946FFF702FB81B2A8F8A8
:100CD000041001FB09F1701A65EB0705C4E90A0568
:100CE00029460023A268FFF7F3FAA8F80600BDE83A
:100CF000F8830000001000E03002002010B5044628
:100D0000102008F05BF80021016041608160C16043
:100D1000A168C160218801B96421018061684160D6
:100D2000618801B964210181054A21880181034B51
:100D3000117843F82100491C117010BD902E00203D
:100D400075030020018801817047704772B6FEE785
:100D5000014801F0CAB90000CC0B0020014801F0A5
:100D6000C4B90000CC0B0020002180F86A1200F505
:100D7000D0707047FEB5054640F26F26304608F049
:100D80001DF804463146FFF7EDFA687D84F8D2007D
:100D9000687D6521001D84F8D300287D2071287DA1
:100DA000001D60717320A071287DE0712A7D04F11F
:100DB000090011540A48C5E90304284600F0BCF8AC
:100DC0002060084807C88DE80700E88AADF80000F1
:100DD00068460294FFF792FFC4F86B022046FEBDFE
:100DE000070E00080C9A0008AFF3008010B5044607
:100DF00090F86912D430FFF7B5FA002084F8680241
:100E000084F8690210BD70B50546C46C90F83800CE
:100E10000126732894F8680223D000284CD094F857
:100E2000690295F8442094F8D330811899423ED84D
:100E300004F1D401084405F13801FFF77AFA94F877
:100E4000690295F844100844C0B284F8690294F825
:100E5000D310884230D104F1D300085C65280BD050
:100E600025E00028DBD195F8390094F8D2108842AB
:100E700022D184F86862D2E704F1D60094F8D21047
:100E8000054607F061FF94F8D32004F1D201515CCC
:100E900088420CD194F8D220294604F5D070FFF78F
:100EA00048FA84F86A62D4F86B02FFF74BFF2046D9
:100EB000BDE87040FFF79ABF70BD00002DE9FC4708
:100EC0001B4F89460546A7F11806DFF8688027E022
:100ED0006B46174A4946284601F07EF8002498F8E8
:100EE00000103A681AE056F824000368AB4214D1A7
:100EF000036C9A4211D1816C00290CD0FA6880F8F9
:100F0000442056F8240069463830FFF712FA56F8A4
:100F10002400816C8847BDE8FC87641C8C42E2D3C6
:100F20004946284601F04CF80028D1D1F3E70000EB
:100F3000542E002024020020F0B5354F054687B01E
:100F4000387860B9334801F0E3FA002201213148D2
:100F500000F096FF002208212E4800F091FF3A7819
:100F60002D4C062A07D345232CA203213148009497
:100F700004F02AF8F7E700202F4E17E056F820106B
:100F8000D5F808C00B6C63450FD109682B689942EE
:100F90000BD105F108062D1D8DE870004C231FA212
:100FA000032126A004F010F8F6E7401C9042E5D398
:100FB000502007F003FF04465021FFF7D3F968687B
:100FC000606000200821A060C4E903016061A061A5
:100FD000E06120626062296821606968A162A96895
:100FE0002164E968A1642969E16401210090CDE9E7
:100FF00002010190049005906946206800F0B0FF5E
:10100000387846F82040401C387007B02046F0BDC4
:1010100024020020CC0B0020BC9900082E2E5C423C
:1010200053505C63616E5C6273705F63616E2E63CC
:1010300000000000689B00083C2E00205B7D62736E
:10104000705F63616E5D2043414E2069642063726E
:10105000617368202C7478205B25645D206F72209A
:101060007278205B25645D20616C72656164792013
:10107000726567697374657265640000104810B525
:1010800002680021D16302689163006841630C48E3
:1010900003F0DAFA04210A4803F0D6FA08210848D6
:1010A00003F0D2FA0021064802F0C0FF04210448F0
:1010B00002F0BCFFBDE810400821014802F0B6BFB5
:1010C0000C0D0020134810B5026840F63401D163BE
:1010D000026891630068416300210E4803F0B4FA8E
:1010E00004210C4803F0B0FA08210A4803F0ACFAD6
:1010F0000C21084803F0A8FA0021064802F096FFE8
:101100000421044802F092FFBDE810400821014884
:1011100002F08CBF0C0D002070B500227D23274EFD
:1011200018E0844214D383EA0205EC0703EB0204BF
:101130004FEA540400D0641C36F81440844207D2AD
:101140001344EC074FEA530300D05B1CDBB201E011
:101150001A4452089C1A012C36F81240E1DC8442F1
:1011600003D1143A02EB820006E036F813508542B0
:1011700004D1143B03EB8300400014E0AC42F0D0F8
:10118000201A00EBC00303EB0010052303EB8000E3
:101190000A2390FBF3F0631B90FBF3F0143A02EB8D
:1011A000820200EB420000EE100AF2EE040AB8EEF2
:1011B000C00A80EE201A81ED001A70BD469A000820
:1011C000F8B500250446009590F858000E46012811
:1011D0000BD0012084F858002046FFF7B5FB020031
:1011E000E06D04D040F010002AE00220F8BD20F4A9
:1011F000885040F00200E06520688168134B194078
:1012000006F08043194341F000418160104B206893
:101210000EE00099491C0091994209D3E06D20F03D
:10122000020040F01000E06584F858500120F8BD3D
:101230008168C90FEDD1E06D20F0020040F001009F
:10124000E06584F858501046F8BD0000C0FFFF3F2D
:1012500002DE04002DE9F04104464548806800F0B4
:101260001F05206803F080FE08BB2068C168C06CC1
:1012700001F0004100F4C070084312D094F8580007
:10128000012814D0012084F858002046FFF794FB71
:1012900001004FF000070CD084F858700846BDE8F4
:1012A000F081E06D40F02000E0650120F7E70220CA
:1012B000F5E7E06DC00504D5206E20F0080020663B
:1012C00000E02766E06D42F20102904340F4805056
:1012D000E065284B20684FF0A046984201D1324685
:1012E00000E00246824200D01DB9E26D22F4801275
:1012F000E2656022026084F858702068C268920239
:1013000003D5426842F480624260A06908282068E0
:10131000426807D022F0400242602068426842F0F2
:10132000200206E022F0200242602068426842F07B
:10133000400242602068984201D1324600E00246F5
:10134000824209D045B1062D06D0072D04D0E06DAC
:1013500040F48010E065A1E7C26812F0007F9DD1E3
:101360008268054B1A4042F00802826096E700004E
:101370000003005000010050C0FFFF7F2DE9F0473F
:10138000044690F858009CB00D464FF00009012823
:1013900022D0012084F8580000261796189620685D
:1013A0004FF0A048404519D1274F0097384603F029
:1013B000E7FD8246206803F0E3FD50EA0A0115D0FC
:1013C000E06D40F02000E0654FF0010984F85860BE
:1013D00048461CB0BDE8F0870220FAE7E06D40F017
:1013E0002000E06584F858600120F2E7174829687A
:1013F00040F61F720029816821F4604116D094F8EC
:10140000383041EA43316B6819438160D8F80810DD
:10141000BB68C1F30001C3F300031943D6D1AB6825
:10142000296819438368934319430BE08160D8F816
:101430000810BB68C1F30001C3F300031943C5D111
:10144000816891438160C1E70001005000030050B2
:101450002DE9F84F00270446009790F85800DFF870
:10146000D8930D46B846012810D0012684F858605C
:10147000206803F081FD58B1E06D40F02000E06588
:10148000012784F858803846BDE8F88F0220FBE732
:10149000D5E900210C23206803EA91131844036B5B
:1014A00001F01F014FF01F0C0CFA01FCC2F3846223
:1014B00023EA0C038A4013430363206803F05CFDB6
:1014C0008246206803F04CFD5AEA00013CD1AA682C
:1014D00029682068B2F1004F37D003F05DFD206825
:1014E000416921F00041416120686A69C168C1F326
:1014F000C10149008A402969042931D000EB8100EB
:101500002B68016EDFF834C303F0F84301EA0C01E5
:101510001343194341F00041016622682869A96913
:1015200002EB8000026E22F080720A430266297F7D
:1015300022682869012910D0002102EB8000026E88
:1015400022F000720A4302667DE0002203F024FDCF
:101550002068416941F00041C5E74FF00071ECE7B8
:10156000002103F0F7FC400320684FF0000171D028
:1015700003F0F0FC90FAA0F0B0FA80F12868420382
:101580006DD090FAA0F0B0FA80F0814204D1002230
:101590001146206803F00FFD0121206803F0DAFCFA
:1015A000400320684FF001015CD003F0D3FC90FAB7
:1015B000A0F0B0FA80F12868420358D090FAA0F069
:1015C000B0FA80F0814204D100220121206803F0AA
:1015D000F2FC0221206803F0BDFC400320684FF0BC
:1015E000020147D003F0B6FC90FAA0F0B0FA80F107
:1015F0002868420343D090FAA0F0B0FA80F081420C
:1016000004D100220221206803F0D5FC03212068C8
:1016100003F0A0FC400320684FF0030132D003F038
:1016200099FC90FAA0F0B0FA80F1286842032ED01D
:1016300090FAA0F0B0FA80F0814204D10022032198
:10164000206803F0B8FC206803F092FC10B3AAE015
:1016500000E004E003F07EFCC0F384618EE7C0F399
:10166000846092E703F076FCC0F38461A3E7C0F3E3
:101670008460A7E703F06EFCC0F38461B8E7C0F3B1
:101680008460BCE703F066FCC0F38461CDE7C0F37F
:101690008460D1E721682A7B286851F8B03FC0F305
:1016A000120C23EA0C0302F0180C654A22FA0CF221
:1016B000024013430B60E968494574D1286841032F
:1016C0001AD090FAA0F1B1FA81F1491C01F01F0182
:1016D00009294FEA403130D8002910D090FAA0F102
:1016E000B1FA81F101F1010101F01F0106FA01F6E1
:1016F00008D1C0F3846109E0C0F38461E5E7C0F379
:101700008461EFE790FAA0F1B1FA81F101F10101F2
:1017100001F01F0146EA816102D1C0F3846003E059
:1017200090FAA0F0B0FA80F000F1010000F01F0084
:1017300000EB400041EA005131E000290DD090FA61
:10174000A0F1B1FA81F101F1010101F01F0106FAE6
:1017500001F605D1C0F3846106E0C0F38461F2E7CD
:1017600090FAA0F1B1FA81F101F1010101F01F013C
:1017700046EA816102D1C0F3846003E090FAA0F0F0
:10178000B0FA80F000F1010000F01F002D4A00EBDC
:10179000400002EB005041EA000141F00071AA68EC
:1017A000206803F0F9FB2848296801423FF469AE3C
:1017B000264A9068264B00F0E070994202D0254BF3
:1017C00099421CD103021AD42168B1F1A04F7FF4D1
:1017D00058AE916840F4000021F0E071014391603F
:1017E0001D481E490068B0FBF1F0401C00EB4000B2
:1017F000800000E0401E00900028FBD141E6184D1B
:10180000184BA94207D1C50105D421689942F5D0EA
:1018100040F0807009E0144DA942EFD14102EDD4AF
:1018200021689942EAD040F48000916821F0E0718B
:101830000143916025E6000000007F4000F0FF03B7
:10184000FFFF0700000020FE00000880000300509A
:10185000000021C31000C09084000020400D030050
:10186000000052C700010050000084CB7047704751
:1018700070470000F8B54FF0000504002E460095B3
:1018800002D0E06D10B107E00120F8BD204600F065
:10189000EBF8266684F8586020688168C1F34071CF
:1018A00019B18168684A1140816020688168C1F37C
:1018B000007189B98168654A114041F080518160A9
:1018C000634864490068B0FBF1F04000801C00E010
:1018D000401E00900028FBD120688168C1F3007190
:1018E00041B9E16D41F01001E165216E41F0010166
:1018F0002166012503F040FB0646E06D00F0100173
:10190000E06D314305D040F01000E0650125284628
:10191000F8BD20F4807040F00200E065206803F01C
:1019200027FB88B94FF0A04080684B49C0F3000006
:101930008968C1F30001084306D1484960688A6894
:1019400022F47C1202438A60E168E06B627F084304
:10195000A16841EA4231084394F8241040EA01406A
:10196000012904D1218D3E4A02EB41410843E16A3D
:1019700029B101F47871226B014342EA0100216828
:10198000CA68384B1A400243CA6020680169626B1A
:1019900021F0406111430161206803F0E1FA064340
:1019A0002ED1207F94F83810800340EA410120684E
:1019B000C26844F202039A430A43C26020690028C5
:1019C000206801690AD041F480310161206850F833
:1019D000C01F22696FF30D01114307E021F480312C
:1019E0000161206850F8C01F6FF30D01016094F889
:1019F000400001280CD02068016921F0010101613B
:101A0000606901282068016B21F00F0110D012E0FD
:101A1000D4E911100143D4E91302104301432068B3
:101A2000026940F2FC739A43114341F00101E6E779
:101A3000226A521E11430163E06D20F0020040F063
:101A40000100E06563E70000C0FFFF5FC0FFFF7FAC
:101A500084000020400D03000001005000030050EE
:101A60000000FEFF0740F0FF2DE9F04198B0054669
:101A7000142111A8FEF776FC44216846FEF772FC9B
:101A80004FF4004128688A03394E0327394C4FF040
:101A90000008B0F1A04F10D0374B984232D10F92CE
:101AA0006846009101F060FC08B1FFF74FF930681B
:101AB000401C3060012828D02FE00F92684600912A
:101AC00001F052FC08B1FFF741F93068401C30606A
:101AD000012807D1E06C40F40050E064E06C00F4B1
:101AE00000501690E06C40F00100E064E06C11A939
:101AF00000F0010016900F2081E881014FF0904026
:101B000000F022FD18B0BDE8F081E06C40F4005018
:101B1000E064E06C00F400501690E06C40F00200CD
:101B2000E064E06CCDF84C8000F0020016900420D8
:101B3000CDE91107464611A9104800F005FD114CEA
:101B40000F4820602420C4E901068020C4E9036016
:101B5000400060618000C4E90606800020622046E3
:101B600000F0E8F808B1FFF7F1F86C65A562C9E785
:101B70000C0000200010024000010050000400484A
:101B80001C0002406C0B00202DE9F0410446344853
:101B900017468846806800F01F05206803F0ECF9BE
:101BA00000285AD194F85800012856D0012084F812
:101BB0005800002625B1052D02D0092D00D003E0E4
:101BC0002046FEF7F9FE18B184F85860BDE8F081B0
:101BD000E06D40F60161884340F48070E065214982
:101BE0002068884202D14FF0A04100E001468142C6
:101BF00000D01DB9E06D20F48010E065E06DC004F8
:101C000004D5206E20F00600206600E02666616D97
:101C10001548C862616D15480863616D14484863D2
:101C200021681C20086084F858602068416841F0F1
:101C3000100141602068C16841F00101C160216864
:101C40003B4642464031606D00F0D4F821688A6816
:101C5000084B1A40121D8A60B8E70220B6E7000060
:101C60000003005000010050BB0800083D090008B7
:101C700023090008C0FFFF7FF0B4016C0B68016806
:101C80000A6890F84440042504F01F0405FA04F69D
:101C90001E4211D056070FD50A68920603D40A686F
:101CA00022F004020A6090F8441001F01F018D40F8
:101CB000016C4D60016B1DE0022606FA04F71F421D
:101CC0004FF0000C4FF0010518D0970716D50A68A1
:101CD000920605D40A6822F00A020A6080F82550AC
:101CE00090F8441001F01F018E40016C4E6080F8A6
:101CF00024C0C16A00291AD0F0BC08470826A640B3
:101D00001E4214D0120712D50A6822F00E020A6091
:101D100090F84410026C01F01F0105FA01F15160C6
:101D2000C56380F8255080F824C0416BE2E7F0BC21
:101D30007047000070B504000CD02B4A20681421B5
:101D4000904209D2294A0244B2FBF1F18900616450
:101D500027490AE0012070BD234A52420244B2FBE7
:101D6000F1F189006164204908392164022184F875
:101D70002510016847F6F0729143D4E902231A4313
:101D8000D4E904352B431A43A3691A43E3691A4380
:101D9000236A1A430A4302602046FEF7A1FEA068A8
:101DA0000025B0F5804F00D16560A16C20790860F6
:101DB000D4E9130141606068401E032808D820461A
:101DC000FEF7AEFE606D0560D4E91601416002E0E9
:101DD0006565A565E565E563012084F8250084F85F
:101DE0002450002070BD000008040240F8FFFDBF31
:101DF0000000024070B5044690F824000025012838
:101E00000CD0012084F8240094F825600020012ED5
:101E100006D084F824000225284670BD022070BD3B
:101E2000022684F82560E0632068066826F0010633
:101E300006602046FEF786FE206B002820680168B9
:101E400002D041F00E0106E021F00401016020689B
:101E5000016841F00A010160A06C0168C90303D563
:101E6000016841F480710160606D18B1016841F44E
:101E7000807101602068016841F001010160CBE7D9
:101E800030B590F85C30012B07D0022B05D0016EE5
:101E900041F002010166012030BD0468A36D4D07C9
:101EA00001D0DD071DD011F0380F01D09D0718D5E6
:101EB00011F4E07F01D05D0713D511F4F05F01D07C
:101EC0001D070ED511F4604F01D0DD0609D511F4C0
:101ED000403F01D09D0604D511F47C0F05D05D066E
:101EE00003D4E56D45F00105E5654C0701D0DC073D
:101EF0001DD111F0380F01D09C0718D411F4E07FE8
:101F000001D05C0713D411F4F05F01D01C070ED48C
:101F100011F4604F01D0DC0609D411F4403F01D028
:101F20009C0604D411F47C0F06D05B0604D503682C
:101F3000DC6D44F00204DC650B0604D5036853F83D
:101F4000DC4F14431C60CB0504D5036853F8E04F05
:101F500014431C600068426D0A434265002030BD96
:101F600010B590F85C20012A07D0022A05D0016E36
:101F700041F002010166012010BD0A687AB10B7BB5
:101F80000A690C7A42EA43734A69406C496842EA3A
:101F9000847200EBC100C0E90032002010BD0B7A52
:101FA0004A690C8A42EA83720B7B006CDB06496843
:101FB00043EA04431A4340F82120EEE77047704794
:101FC0000068402904D0D0F8980000F00F00704756
:101FD000D0F89000F9E70000F0B590F85C500024CC
:101FE000022D03D0016E41F0080160E00568402930
:101FF00046D0D5F89860360756D0D5F89860F601E7
:1020000004D5D5F88060F60500D50124D5F89850A0
:10201000C5F301252E19C46C06EBC60504EBC505F6
:102020002C6814F0804454602C6843D024F0604441
:1020300014602C682B4F04F00054946010CD04F011
:102040000044146135F8044BA4B2D46155F8044C33
:10205000C4F30344D46055F8044C04F48014546170
:1020600055F8044C04F40014946155F8044CC4F37E
:102070000664146255F8044CE40F5462002421E015
:10208000D5F8906036070FD0D5F89060F60104D5EA
:10209000D5F88060B60500D50124D5F89050C5F379
:1020A00001252E19846CB7E7016E41F48071016639
:1020B0000120F0BDC4F38A44BAE715F804C003F860
:1020C00004C0641CD2F80CC017F80CC0A445F4D8A6
:1020D0000068402903D0C0F89C600020F0BDC0F823
:1020E0009460FAE75499000870472DE9F05F0446C0
:1020F0000068016D426D01F4E05102EA0108016DD2
:10210000426D01F0070102EA0109016D426D01F023
:10211000380102EA010A016D476D01F471010F40B7
:10212000016D426D01F46021456D02EA010B016D04
:10213000CE43710607D4E943490604D44021016522
:102140002046FFF7D1FFF0050ED4E843C0050BD4BD
:102150002068D0F8D820D0F8E01011404FF48072F9
:102160000265204600F0ECF9B8F1000005D02168C6
:1021700008654146204600F0E5F9B9F1000005D0B8
:10218000216808654946204600F0B6F9BAF100001A
:1021900005D0216808655146204600F0B3F9B00526
:1021A00009D4E843800506D421684FF4007008651F
:1021B000204600F0C8F930060DD4E84300060AD4E2
:1021C0002068D0F8D420D0F8DC10114080220265BD
:1021D000204600F0B6F9B00409D4E843800406D4E0
:1021E00021684FF400500865204600F0A8F930043B
:1021F00009D4E843000406D421684FF40040086580
:10220000204600F09BF970040AD4E843400407D448
:1022100021684FF480400865206E40F08000206601
:10222000BBF1000005D02168086559462046FFF73C
:10223000C6FE27B120680765206E38432066206EF1
:10224000002802D02046FFF7B9FEBDE8F09F00004D
:102250002DE9F041040006D0DFF8E88194F85C0035
:10226000002518B107E00120BDE8F08184F85D5039
:10227000204600F0EFF82068816921F010018161AB
:1022800000F040FA0646032704E000F03BFA801B0A
:102290000A2811D8206880690007F6D4206881696F
:1022A00041F00101816100F02DFA06460BE000F0DB
:1022B00029FA801B0A2806D9206E40F0010020660A
:1022C00084F85C70CFE720688069C007EFD0206891
:1022D000816941F0020181612168414502D15A4979
:1022E00060680860207C01282068816937D041F04F
:1022F00040018161607C01282068816932D021F42D
:1023000080418161A07C0128206881692DD041F441
:102310008051816120688169A26821F44071114374
:1023200081612068816921F0A401816120680169CF
:1023300021F010010161E068012819D010B30228D2
:102340001BD02068816941F08001816120680169AA
:1023500041F010010161E06803280ED012E021F085
:102360004001C6E741F48041CBE721F48051D0E73A
:102370002068816941F0040103E02068816941F02F
:1023800020018161207EE16940066FF0FF0202EBCF
:102390000121A0F100700843216AA38A491E084365
:1023A000110201EB034318432368D861A068B0F51C
:1023B000407F10D1D4E90A0302EB0322401E1043F0
:1023C000226B0B1303EB02121043A28C01EB0241B0
:1023D00008432168C860206850F8C01FE26B1143B1
:1023E00001601A482064226852F8801FA38E21F4ED
:1023F000F81141EA034111601449703161642268A7
:1024000052F8801F94F8383021F0706141EA03617E
:1024100011600E49B031A1640D49E1640C49D83115
:1024200021650B49F031616500F5547100E020C071
:102430008842FCD3A5652566012084F85C00002055
:1024400012E70000006400400065004000A4004066
:1024500088A5004010B598B00446142111A8FDF7D6
:1024600081FF44216846FDF77DFF204920688842AE
:1024700039D18014009040030C90684600F074FF3E
:1024800008B1FEF763FC1A48816D41F00071816567
:10249000816D01F000711691C16C41F00201C164BF
:1024A000C06C11A900F0020016904FF4407011901A
:1024B0000220129000201390032014900920159000
:1024C0000C4800F041F800220521152000F0A8F981
:1024D000152000F097F900220521162000F0A0F940
:1024E000162000F08FF918B010BD00000064004005
:1024F0000010024000040048C90702D04021FEF746
:10250000DDBC7047090702D54121FEF7D7BC7047F3
:1025100090F85C10012905D0016E41F004010166BC
:1025200001207047022180F85C1001688A6922F05E
:1025300001028A61002101660846704770477047B2
:1025400070477047704770472DE9F84FDFF8889162
:102550000022A9F1040B03274FF00F0C09F1040A24
:10256000ABF1040EB1E0012595402B4073D00C79FE
:1025700004F00304012C01D0022C15D1866854000C
:1025800007FA04F826EA0806D1F80C8008FA04F8DD
:1025900048EA0608C0F808804468AC430D79C5F3E2
:1025A00000159540254345600C79E443A40708D005
:1025B000C568540007FA04F6B5438E68A6402E435A
:1025C000C6600C7904F00304022C11D1D40800EB8E
:1025D0008406356A5407E40E0CFA04F825EA080567
:1025E000D1F8108008FA04F848EA0508C6F82080F7
:1025F0000568540007FA04F6B5430E7906F00306A1
:10260000A6402E4306604C6814F4403F5CD0334C27
:10261000256E45F001052566246E22F0030504F0C1
:10262000010400942E4C05EB0408D8F808509407D8
:10263000260F0CFA06F4A543B0F1904F04D0294CB4
:10264000A04203D1012417E0002415E0264CA0424B
:1026500002D1022410E037E0244CA04201D103242F
:102660000AE0234CA04201D1042405E0214CA04201
:1026700001D1052400E00624B4402C43C8F80840EA
:10268000D9F800404D464E689C43F60200D51C43E5
:102690002C60DAF8004055464E689C43B60200D5DF
:1026A0001C432C60DBF800405D464E689C43B6033B
:1026B00000D51C432C60DEF8004075464E689C43F4
:1026C000F60300D51C432C60521C0B6833FA02F44D
:1026D0007FF449AFBDE8F88F0804014000100240C4
:1026E000000001400004004800080048000C0048B9
:1026F00000100048001400480AB1816170478162EF
:102700007047000001488068704700007800002092
:102710000248816842681144816070477800002057
:1027200010B50024032000F09BF80F2000F008F8FB
:1027300008B1012401E000F047F8204610BD000078
:1027400030B505461B4887B0016E41F48021016613
:10275000006E05A900F480200690684601F040F85C
:1027600001F070F81449154AB0FBF1F11448491E04
:102770000260416040F2E7320021C0E9032181603C
:1027800001F0B3FC040012D10D4801F0E1FC04009B
:102790000DD11A2000F036F8102D07D2002229465C
:1027A0001A2000F03DF80748056000E0012407B05A
:1027B000204630BD0010024040420F00004801405A
:1027C000580F0020780000200D4808B5016E41F038
:1027D00001010166016E01F001010091816D41F07E
:1027E00080518165806D002200F0805000900F21A3
:1027F000901E00F015F8BDE8084000F0ADBD0000E7
:1028000000100240002809DB00F01F020121914066
:102810004009800000F1E020C0F80011704700007E
:10282000F0B40E4B1B68C3F30223C3F10704042C5E
:1028300000D904241D1D072D01D2002300E0DB1E5A
:10284000012606FA04F56D1E0D409D409E40761E41
:10285000164045EA0601F0BC05F0C4BD0CED00E0F1
:10286000064A00F0070110684FF6FF03184040EADF
:102870000120034908431060704700000CED00E0A0
:102880000000FA0501220168C0F8D022002280F879
:10289000C82231F8540F40F001000880088840F049
:1028A000020008801046704770B50F4D044669B1AC
:1028B00001290AD1D4F8D80204F0DFFE607A00289A
:1028C00003D0286840F00600286070BD607A28B107
:1028D00003F04EFA286820F006002860D4F8D802E9
:1028E000BDE8704004F061BE10ED00E010B50C06CC
:1028F00007D501F0070101EB810100EBC1001030A9
:1029000005E001EB810100EBC10000F5A87099B270
:1029100032B1012202730181190C4181002010BDE6
:1029200000220273C180F9E701EB810200EBC202D1
:10293000D0F8D802526A04F017BD01EB810200EB17
:10294000C202D0F8D802D2F8642104F061BD70B59B
:1029500004460B0601F0070000EB800104EBC10107
:102960004FF001024FF0000502D54A74103103E028
:1029700081F8515101F5A871087094F8900201286E
:1029800008D084F89022206805F020FA84F890524C
:10299000002070BD022070BD70B5044601F00F002C
:1029A0002279904201D9012070BD0B0601F0070089
:1029B00000EB800104EBC1014FF001024FF0000574
:1029C00002D54A74103103E081F8515101F5A87124
:1029D0008D70087094F89002012808D084F8902235
:1029E000206805F093FA84F89052002070BD022010
:1029F00070BD2DE9F04704685FEA42480B788D69A5
:102A0000B4F850804FF0000C4BF68F7648F28007F8
:102A100048F68F7948F2C00A444428D540F202486B
:102A200008EBC30834F80840C4F30904A54203D3F3
:102A30002D1B8D6102D00BE0C1F818C0056835F878
:102A400023C00CEA060C8CF400563E4325F82360A4
:102A5000520609D50B78026832F8235005EA0905B9
:102A600045EA0A0522F8235074B30A8927E040F2A8
:102A7000064808EBC30834F80840C4F30904A5422B
:102A800003D32D1B8D6102D00BE0C1F818C005687F
:102A900035F823C00CEA060C8CF400563E4325F8AA
:102AA0002360520609D40B78026832F8235005EAF5
:102AB000090545EA0A0522F823502CB14A894969DB
:102AC0000068234605F03BFC2046BDE8F0872DE971
:102AD000F05F054600680C465FEA4268D1F818C00E
:102AE00016460978B0F8508048F6BF7A48F2800B55
:102AF00048F68F774CF280094FF6FF724FF4004E84
:102B00004FF0000340447DD540F2024808EBC10875
:102B100030F80800C0F30900844514D9BCEB000C60
:102B2000C4F818C010D0760408D52E6836F821C035
:102B30000CEA070C4CEA090C26F821C094F8241082
:102B4000012963D07CE1A361607810B1012813D022
:102B50001AE02868B0F85020104400EBC100B0F82B
:102B60000214C1F30901A0F80214B0F8021441F4F0
:102B70000041A0F8021407E02868B0F85020104483
:102B800000EBC100A0F802346178286811B1012976
:102B900013D01AE0B0F850100844217800EBC100BF
:102BA000B0F80614C1F30901A0F80614B0F8061431
:102BB00041F40041A0F8061407E0B0F850100844B2
:102BC000217800EBC100A0F80634E07802280BD190
:102BD0002078296831F8202002EA0A0282F02002D7
:102BE00042EA0B0221F8202021782846FFF79CFEBC
:102BF00070040AD52178286830F821203A4042EA4A
:102C0000090200E051E020F82120C5E0616901449B
:102C10006161E1690144E1612669216AB14203D33E
:102C20003046091A216204E084F8243009B10846CC
:102C30002362617811B101292BD033E02968B1F802
:102C400050301944237801EBC301B1F80234C3F3C7
:102C50000903A1F8023401F2024158B13E280ED80E
:102C60004308C60700D05B1C0E8802EA8322164385
:102C70000E8017E00A8842F400420A8012E04209FE
:102C8000C30600D1521E0B884EEA822213430B80EA
:102C900008E02968B1F850201144227801EBC20104
:102CA000A1F8020483B22289C6E040F2064808EB8C
:102CB000C10830F80800C0F30900844514D3BCEB08
:102CC000000CC4F818C010D0760408D42E6836F86A
:102CD00021C00CEA070C4CEA090C26F821C094F834
:102CE000241001295BD0ABE0A361607810B101280A
:102CF00013D01AE02868B0F85020104400EBC1004F
:102D0000B0F80214C1F30901A0F80214B0F80214DB
:102D100041F40041A0F8021407E02868B0F8502000
:102D2000104400EBC100A0F802346178286811B1AA
:102D3000012913D01AE0B0F850100844217800EBB4
:102D4000C100B0F80614C1F30901A0F80614B0F8E8
:102D5000061441F40041A0F8061407E0B0F8501042
:102D60000844217800EBC100A0F80634E07802287E
:102D70000BD12178286830F8212002EA0A0282F07B
:102D8000200242EA0B0220F8212021782846FFF792
:102D9000CBFD70047FF52EAF0020BDE8F09F616988
:102DA00001446161E1690144E1612669216AB1423E
:102DB00003D33046091A216204E009B108462362B0
:102DC00084F824306378296813B1012B2AD031E0CC
:102DD000B1F850301944237801EBC301B1F806343F
:102DE000C3F30903A1F8063401F2064158B13E28A5
:102DF0000ED84308C60700D05B1C0E8802EA832267
:102E000016430E8016E00A8842F400420A8011E060
:102E10004209C30600D1521E0B884EEA8222134398
:102E20000B8007E0B1F850201144227801EBC20179
:102E3000A1F80604628983B26169286805F099FAED
:102E40002078296831F8202002EA0A0282F0300254
:102E500042EA0B0221F820209EE701F0070101EB76
:102E6000810100EBC100D0F86C0170472DE9F04101
:102E700004460E0601F0070000EB800104EBC101DF
:102E80004FF001074FF0000502D54F74103103E0F9
:102E900081F8515101F5A871022B0870C2F30A00A4
:102EA0000861CB7000D10D7194F89002012809D00F
:102EB00084F89072206804F0DFFD284684F8905270
:102EC000BDE8F0810220FBE710B501F0070404EB38
:102ED000840100EBC101C1E959230022C1F86C2132
:102EE00081F8512181F85041006801F5A87105F081
:102EF0005EF8002010BD70B5044601F0070022798D
:102F0000904201D9012070BD0B064FF000054FF033
:102F1000010206D500EB800104EBC1014A741031B7
:102F200007E001EB810104EBC10181F8515101F58A
:102F3000A8718A70087094F89002012808D084F86B
:102F40009022206805F01AF884F89052002070BD95
:102F5000022070BD10B501F0070404EB840100EB02
:102F6000C101C1E90923012281F834200B63002348
:102F7000CB624A7401F8104F006805F018F8002081
:102F800010BD10B50446006805F0D6F9010404D55B
:102F90002046BDE8104002F0C2BB41050ED52068B6
:102FA00030F8441F21F480610180204600F008F9C8
:102FB0002046BDE81040002100F02EB9410405D59F
:102FC000206830F8441F21F480417DE0810405D55C
:102FD000206830F8441F21F4005175E0C1041FD56A
:102FE000206830F8401F21F004010180206830F88B
:102FF000401F21F00801018094F8C802012806D181
:10300000002084F8C80201462046FFF74DFC204608
:1030100000F0EAF8206830F8441F21F4805153E0B2
:10302000010512D5206830F8401F41F008010180E9
:10303000206830F8441F21F400610180206830F8D6
:10304000401F41F0040101800AE0010629D52068F3
:1030500030F8441F21F08001018094F8C80218B1B3
:10306000204600F009F910BD206830F8401F41F0FB
:1030700004010180206830F8401F41F00801018000
:10308000012084F8C8022068B0F854003C2101EA0D
:103090009000C4F8CC022046BDE810400121FFF7A3
:1030A00003BC810509D5206830F8441F21F4007164
:1030B0000180204600F0ACF810BDC005FCD52068AA
:1030C00030F8441F21F48071018010BD70B50400F8
:1030D00004D094F89102002510B106E0012070BDE3
:1030E00084F89052204600F03FF8032084F89102C3
:1030F000206804F003FF002101260BE001EB8100B2
:1031000004EBC00046740174C57405624562491C35
:10311000C9B2856220798842F0D8002111E001EB24
:10312000810004EBC00080F8515180F8501180F804
:103130005351C0F86051C0F86451491CC9B2C0F87D
:10314000685120798842EAD894E8070004F0CDFE5F
:10315000257384F89162A07A012802D12046FFF7F6
:1031600091FB002070BD000010B592B004464421D0
:103170006846FDF7F7F81049206888421AD14014D4
:10318000009000200D90684600F0EEF808B1FDF7C1
:10319000DDFD0A48816D41F400018165806D0022EA
:1031A00000F40000119005211420FFF739FB1420D2
:1031B000FFF728FB12B010BD005C00400010024079
:1031C00070B5044640790125022801D0FDF7BEFD07
:1031D0002946D4F8D80204F002FAD4F8D802BDE89F
:1031E000704004F0B5B9000010B50446407A30B123
:1031F0000648016821F00601016002F0B9FDD4F82B
:10320000D802BDE8104004F0D0B9000010ED00E095
:10321000D0F8D80204F0D3B910B5044690F8900263
:1032200001280AD0012084F890022173206805F05B
:103230009AF8002084F8900210BD022010BDD0F84A
:10324000D82200F52671104604F0D5B910B5044611
:1032500090F8900201280CD0012084F89002206898
:1032600005F05AF8206804F039FE002084F8900236
:1032700010BD022010BD000010B50446D0F8D802E1
:1032800004F0FBF9607A002804D00348016841F09B
:103290000601016010BD000010ED00E02B492C4B31
:1032A0000A6832214A432B4940B1B0F5007F0868D3
:1032B00029D020F4C06040F480602CE00868C0F39E
:1032C0004120022804D051F8800F20F4807022E0C1
:1032D000D1F8800020F48070C1F88000086820F4E4
:1032E000C06040F400700860B2FBF3F0401C00E0E6
:1032F000401E4A69520501D50028F9D148694005A8
:103300000AD503207047C0F34120022806D051F8A7
:10331000800F40F48070086000207047D1F8800072
:1033200040F48070C1F88000086820F4C06040F468
:1033300000700860B2FBF3F0401C00E0401E4A69D8
:103340005205DBD50028F9D1D8E700008400002021
:1033500040420F00007000400248816841F4804103
:1033600081607047007000402DE9F84F0446002648
:103370000068A24D374600035CD5A86D4FF00009E8
:10338000C00009D4A86D40F08050A865A86D4FF02A
:10339000010900F080500090DFF864A2DAF8001014
:1033A00041F48071CAF80010FFF7ACF9804607E0DD
:1033B000FFF7A8F9A0EB0800022801D9032631E0A5
:1033C000DAF80000C005F3D566BBD5F8900010F41C
:1033D000407014D0216C814211D0D5F89000D5F8FE
:1033E000901020F4407041F48031C5F89010D5F869
:1033F000901021F48031C5F89010C5F89000C007F6
:103400004ED0FFF77FF9804641F2883A05E0FFF79A
:1034100079F9A0EB08015145D0D8D5F89000800784
:10342000F5D5EEB33746B9F1000F03D0A86D20F003
:103430008050A8652078C00707D0D5F8880061685B
:1034400020F003000843C5F888002078800707D5DE
:10345000D5F88800A16820F00C000843C5F8880062
:103460002078400707D5D5F88800E16820F03000C3
:103470000843C5F888002078000707D5D5F88800EC
:10348000216920F0C0000843C5F888002078800634
:1034900009D5D5F88800616920F44060084300E050
:1034A0003DE0C5F888002078400607D5D5F88800AB
:1034B000A16920F440500843C5F888002078000630
:1034C00007D5D5F88800E16920F440400843C5F8E5
:1034D00088002088C00507D5D5F88800216A20F427
:1034E00040300843C5F888002088800507D5D5F806
:1034F0008800616A20F440200843C5F888002088CD
:10350000400519D5D5F88800A16A20F44010084379
:10351000C5F88800A06AB0F5801F09D00CE0D5F886
:103520009000216C20F440700843C5F890007AE7C1
:10353000E86840F48010E860208800050FD5D5F8D1
:103540008800E16A20F440000843C5F88800E06A7A
:10355000B0F5800F03D1E86840F48010E86020885F
:10356000C0040FD5D5F88800216B20F040700843C7
:10357000C5F88800206BB0F1807F03D1E86840F483
:103580008010E860208881044FF000600ED5D5F8E7
:103590008810626B21F040611143C5F88810616B9F
:1035A000814203D1E96841F48011E960218849042E
:1035B0000ED5D5F88810A26B21F040611143C5F8F3
:1035C0008810A16B814203D1E86840F48010E86064
:1035D000208800040FD5D5F88800E16B20F040501A
:1035E0000843C5F88800E06BB0F1805F03D1E8685C
:1035F00040F48030E8603846BDE8F88F00100240A3
:10360000007000402DE9F0470D4604004FF0000720
:1036100025D0DFF8AC91D9F8000000F00F00A842E7
:103620000CD2D9F8001021F00F012943C9F800107D
:10363000D9F8000000F00F00A84210D12168614EB7
:10364000C80741F2883A58D06068DFF87C810328C7
:1036500008D0022830682CD0400500282BDB012040
:10366000BDE8F08730688001F9D5F06800F003020A
:10367000F068C0F30310401C032A18D0534AB2FB71
:10368000F0F0F268C2F306225043F268C2F34162DE
:10369000521C5200B0FBF2F0404517D9B06810F050
:1036A000F00F0CD0880711D5A06840B10EE0484A51
:1036B000E5E78003D1E700F0D7F8404506D9B068C8
:1036C00020F0F00040F08000B0608027B0686168B2
:1036D00020F003000843B060FFF714F8804605E0CF
:1036E000FFF710F8A0EB080151453BD8B0686168BE
:1036F00000F00C00B0EB810FF2D12068810714D5E7
:10370000400703D5B06840F4E060B060207800075F
:1037100005D5B06820F4605040F4E060B060B06857
:10372000A16820F0F000084304E0802F03D1B068C6
:1037300020F0F000B060D9F80010484601F00F0109
:10374000A94217D90168C84621F00F012943016039
:10375000FEF7D8FF0746D14606E0FEF7D3FFC11BB0
:10376000494501D903207BE7D8F8000000F00F009D
:10377000A842F2D12078400705D5B068E16820F46E
:10378000E0600843B0602078000706D5B068216982
:1037900020F4605040EAC100B06000F065F8B16804
:1037A0000C4AC1F30311515C01F01F01C8400A49E2
:1037B00008600A480068BDE8F047FEF7C1BF000096
:1037C000002002400010024000B4C4040024F400B1
:1037D00000127A008C9900088400002078000020F4
:1037E0000F2202600C4A936803F00303436093685E
:1037F00003F0F0038360936803F4E063C3609268AE
:103800004FF4E06303EAD20202610448006800F06A
:103810000F000860704700000010024000200240C6
:103820000548064900688968054AC1F30221515CD0
:1038300001F01F01C84070478400002000100240C2
:103840009C9900080548064900688968054AC1F343
:10385000C221515C01F01F01C84070478400002064
:10386000001002409C990008184A10B59068C0F3F7
:103870008101174801290BD091684410C1F38101DF
:10388000022906D09168C1F38101032903D00020E9
:1038900010BD204610BDD16801F00303D168C1F30B
:1038A0000311491C032B02D0B0FBF1F001E0B4FB83
:1038B000F1F0D168C1F306214843D168C1F34161F9
:1038C000491C4900B0FBF1F010BD0000001002409F
:1038D0000024F4002DE9F843040078D02078F54D59
:1038E000C00745D0A868E96800F00C0001F00301AA
:1038F0000C2802D0082817D001E0032914D06068F2
:10390000B0F5803F17D0B0F5A02F286817D020F46D
:1039100080302860286820F4802028606068D8B152
:10392000FEF7F0FE064613E02868800320D56068A5
:103930000028D2D01CE0286840F48030EDE740F445
:1039400080202860F7E7FEF7DDFE801B64286ED834
:1039500028688003F7D50BE0FEF7D4FE064604E0A6
:10396000FEF7D0FE801B6428F1D828688003F7D4C6
:10397000207880074BD5A868E96800F00C0001F0BA
:1039800003010C2802D004280DD001E002290AD03E
:10399000E068002828682BD040F480702860FEF78B
:1039A000B1FE064619E02868400502D5E068002807
:1039B00093D06868217C20F0FE4040EA0160686096
:1039C000BD480068FEF7BCFE002800D11FE06DE195
:1039D000FEF798FE801B0228B9D828684005F7D565
:1039E0006868217C20F0FE4040EA016068600EE0DB
:1039F00020F480702860FEF785FE064604E0FEF79E
:103A000081FE801B0228A2D828684005F7D42078C0
:103A1000000728D560690028D5F8940012D040F03E
:103A20000100C5F89400FEF76DFE064605E08FE044
:103A3000FEF768FE801B022889D8D5F8940080071D
:103A4000F6D510E020F00100C5F89400FEF75AFE0C
:103A5000064604E0FEF756FE801B022878D8D5F80B
:103A600094008007F6D42078400761D5A86D002720
:103A7000C00008D4A86D40F08050A865A86D01274B
:103A800000F0805000908D480168C90511D401688C
:103A9000804641F480710160FEF734FE064604E082
:103AA000FEF730FE801B022852D8D8F80000C0056F
:103AB000F6D5A068012815D00528D5F8900016D0B5
:103AC00020F00100C5F89000D5F8900020F0040027
:103AD000C5F89000A06841F28838B8B1FEF712FE30
:103AE00006460EE0D5F8900040F00100F0E740F007
:103AF0000400C5F89000F5E7FEF704FE811B414580
:103B000026D8D5F890008007F6D50CE0FEF7FAFD30
:103B1000064604E0FEF7F6FD811B414518D8D5F8AE
:103B200090008007F6D41FB1A86D20F08050A865E2
:103B30002078800628D5A0690028D5F8980012D0F2
:103B400040F00100C5F89800FEF7DCFD064605E0F0
:103B500072E0FEF7D7FD801B02286DD8D5F89800DB
:103B60008007F6D510E020F00100C5F89800FEF7B8
:103B7000C9FD064604E0FEF7C5FD801B02285BD8A0
:103B8000D5F898008007F6D4E069E8B3A968C1F3D6
:103B9000810103295BD00228286820F0807028600A
:103BA00003D0FEF7AFFD044649E0FEF7ABFD064645
:103BB00004E0FEF7A7FD801B02283DD8286880019D
:103BC000F7D4F4E908016FF00F0202EB011108438A
:103BD000218A5204490802EB4151A26841EA0221BC
:103BE0000843217D4FF07E42490802EB41610843C2
:103BF000217B40EAC160E968314A11400843E8602E
:103C0000286840F0807000E052E02860E86840F0EA
:103C10008070E860FEF776FD044604E0FEF772FD72
:103C2000001B022808D828688001F7D540E0FEF77D
:103C300069FD001B022802D90320BDE8F88328682B
:103C40008001F4D4E8681F490840E86030E00128AA
:103C5000F3D0E868226A00F00301914226D1616A3C
:103C600000F0F0020901103991421FD1A26A00F45C
:103C7000FE41B1EB022F19D194F82C2000F07841CD
:103C8000B1EBC26F12D1218E00F4C0024908490580
:103C9000A1F50011914209D194F8341000F0C060F0
:103CA00049084906A1F10071814201D00120C4E711
:103CB0000020C2E7001002407800002000700040A1
:103CC0000C809F01FCFFEEFE70B5040003D0607A0B
:103CD000002510B105E0012070BD2572204600F0DE
:103CE00013F80220607220680168626821F0080100
:103CF000114301602068016841F004010160012066
:103D00006072E560002070BD10B592B00446442199
:103D10006846FCF727FB0D492068884213D14FF411
:103D20008040009000200E906846FFF71DFB08B110
:103D3000FDF70CF80648C16C41F08061C164C06CAD
:103D400000F08060119012B010BD00000008065015
:103D50000010024070B5040009D0606A002540B12F
:103D600025616561A56294F85D0040B10CE0012019
:103D700070BD6068B0F5827FF4D0E561F2E784F849
:103D80005C50204600F05CF8022084F85D0020685A
:103D9000016821F040010160E0684FF4E062904268
:103DA00001D9002101E04FF48051B0F5706F02D0CD
:103DB000904200D0A562A088228900F4827002F4AB
:103DC00004421043227C02F002021043227D02F0E2
:103DD00001021043228B02F400721043227F02F092
:103DE0003802104394F8202002F080021043228D04
:103DF00002F40052104322681060A069042202EA13
:103E0000104094F8242001F4805102F01002104375
:103E100094F8342002F008021043A28902F4706280
:103E200010430843216848602068C16921F400619B
:103E3000C1612566012084F85D00002070BD00008E
:103E400030B587B0044614216846FCF78BFA214D43
:103E500021680022204802230324A9421AD1016EBE
:103E600041F480510166016E01F480510591C16CED
:103E700041F00101C164C06C029200F001000590A4
:103E8000E020CDE900030520CDE9034069464FF06D
:103E900090401BE0114DA9421AD1816D41F40041BF
:103EA0008165816D01F400410591C16C41F0020111
:103EB000C164C06C029200F0020005903820CDE988
:103EC00000030620CDE9034069460548FEF73CFBA8
:103ED00007B030BD0030014000100240003C0040FF
:103EE00000040048704770477047000030B590F8F4
:103EF0003C20012A42D0012280F83C20CA688B680D
:103F000022F440721A434B6822F480621A430B6811
:103F100022F400621A430B6922F480521A434B695F
:103F200022F400521A430B6B22F480421A430B8B8B
:103F300022F4702242EA0342CB6922F080521A43F3
:103F40000F4D03680024AB4202D00E4DAB4210D19E
:103F50000D8D22F4700242EA05520D6A22F0807241
:103F60002A434D6A22F000722A43C96A22F00052A5
:103F70000A435A6480F83C40002030BD022030BD26
:103F8000002C01400034014070477047704700002A
:103F9000F0B590F83C20012A3AD0012580F83C5039
:103FA000022280F83D2003685A689C68194E1A4F17
:103FB000B34201D0BB4204D122F4700C4A6842EAF9
:103FC0000C02DFF858C002EA0C02D1F800C04CEA3B
:103FD000020CC3F804C00268B2420DD0B2F1804FA7
:103FE0000AD00F4B9A4207D00E4B9A4204D0BA42E5
:103FF00002D00D4B9A4204D1896824F08003194302
:10400000916080F83D50002180F83C100846F0BDDA
:104010000220F0BD002C0140003401408FFFFFFD65
:1040200000040040000800400040014010B5044674
:1040300049B104290AD008290BD094F84700012877
:104040000AD0012010BD94F84400F8E794F8450028
:10405000F5E794F84600F2E7022079B3042931D05D
:10406000082932D084F847000422206801F03FFF7D
:104070002068416C41F40041416415492068884240
:104080000ED0B0F1804F0BD01249884208D01249AF
:10409000884205D01149884202D01149884207D18F
:1040A0008168104A1140062906D0B1F5803F03D03F
:1040B000016841F001010160002010BDFFE784F8B4
:1040C0004400D1E784F84500CEE784F84600CBE70A
:1040D000002C014000040040000800400034014072
:1040E0000040014007000100704710B5040003D0F4
:1040F00094F83D0010B107E0012010BD002084F8C5
:104100003C00204600F022F8022084F83D00211DEA
:10411000206801F081FE012084F8480084F83E0008
:1041200084F83F0084F8400084F8410084F842009D
:1041300084F8430084F8440084F8450084F846007D
:1041400084F8470084F83D00002010BD704700004F
:1041500090F83D10012901D001207047022180F81C
:104160003D100168CA6842F00102CA600068104947
:1041700088420ED0B0F1804F0BD00E49884208D053
:104180000D49884205D00D49884202D00C49884229
:1041900007D181680B4A1140062906D0B1F5803F4E
:1041A00003D0016841F00101016000207047000068
:1041B000002C014000040040000800400034014091
:1041C0000040014007000100704770472DE9F041B1
:1041D00004460068C66805694FF00007A90713D5B3
:1041E000B10711D5F91E016101202077206880698F
:1041F0008007204602D0FFF7E8FF04E000F014F942
:10420000204600F01FFA2777680716D5700714D5E7
:1042100021686FF00400086102202077206880691F
:1042200010F4407F204602D0FFF7CFFF04E000F0FB
:10423000FBF8204600F006FA2777280715D5300747
:1042400013D521686FF008000861042020772068EA
:10425000C0698007204602D0FFF7B7FF04E000F0F6
:10426000E3F8204600F0EEF92777E80616D5F006C9
:1042700014D521686FF010000861082020772068AD
:10428000C06910F4407F204602D0FFF79EFF04E093
:1042900000F0CAF8204600F0D5F92777E80708D0E3
:1042A000F00706D021686FF001000861204600F099
:1042B00061FB280601D4A80408D5300606D521687C
:1042C0006FF4025008612046FFF70DFEE80508D59F
:1042D000300606D521686FF4807008612046FFF72C
:1042E00001FE680608D5700606D521686FF040000B
:1042F0000861204600F048FBA80608D5B00606D5A0
:1043000021686FF0200008612046FFF7EDFDE8020C
:1043100008D5F00206D521686FF4801008612046A8
:10432000FFF733FEA80208D5B00206D521686FF466
:10433000001008612046FFF727FE680208D57002CA
:1043400006D521686FF4800008612046FFF71EFE45
:1043500028020AD5300208D521686FF400000861F0
:104360002046BDE8F041FFF7BFBEBDE8F081000088
:104370002DE9F04387B0044614216846FBF7F2FFAD
:10438000254A21680025254802244FF09049914292
:104390002BD1C16C41F00201C164C16C01F002017A
:1043A0000591C16C41F00101C164C06C032600F0AD
:1043B000010005904FF4C04006278DE8F100DFF8BA
:1043C000608069464046FEF7BFF8A0038DE87100A3
:1043D0000420049069464046FEF7B6F84FF4E060CA
:1043E0008DE8F1006946484611E00E4A914210D12D
:1043F000C16C41F00101C164C06C694600F001006C
:10440000059010208DE83100CDE903544846FEF7B1
:104410009BF807B0BDE8F083002C0140001002407B
:104420000004004800040040704770B5044690F84E
:104430003C0000260D4601280BD0012084F83C00EA
:104440000C2A4AD007DC82B1042A20D0082A06D1DF
:1044500031E0022070BD102A53D0142A63D0012607
:10446000002084F83C00304670BD206801F0C2FD99
:104470002068816941F0080181612068816921F02B
:1044800004018161206881692A69114311E0206873
:1044900001F0FEFD2068816941F4006181612068BE
:1044A000816921F480618161206881692A6941EA1A
:1044B00002218161D4E7206801F032FE2068C169E1
:1044C00041F00801C1612068C16921F00401C161A6
:1044D0002068C1692A69114311E0206801F068FE73
:1044E0002068C16941F40061C1612068C16921F49B
:1044F0008061C1612068C1692A6941EA0221C16104
:10450000AEE7206801F09CFE2068016D41F00801D3
:1045100001652068016D21F0040101652068016DCD
:104520002A69114311E0206801F0C2FE2068016D84
:1045300041F4006101652068016D21F4806101652D
:104540002068016D2A6941EA0221016588E710B5FA
:10455000040003D094F83D0010B107E0012010BD25
:10456000002084F83C00204600F022F8022084F865
:104570003D00211D206801F04FFC012084F8480017
:1045800084F83E0084F83F0084F8400084F841003D
:1045900084F8420084F8430084F8440084F845001D
:1045A00084F8460084F8470084F83D00002010BDE0
:1045B00038B5054600681E4A1E49904211D1086E62
:1045C00040F400600866086E002200F4006000906D
:1045D0000F211A20FEF724F9BDE838401A20FEF713
:1045E00011B9154A904221D1886D40F002008865CA
:1045F000886D134C00F002000090104820603E20AF
:1046000060601020A06000208021C4E903014900FF
:1046100061618900C4E90610880020622046FDF728
:1046200089FB08B1FCF792FBAC62A56238BD0000C3
:10463000002C01400010024000040040080002402D
:10464000A40D00207047704730B5044669B10429B5
:104650000ED008290FD00C2910D0102911D094F8B1
:104660004300012810D0012030BD94F83E00F8E747
:1046700094F83F00F5E794F84000F2E794F8410021
:10468000EFE794F84200ECE70220E9B3042942D0B6
:10469000082943D00C2944D0102945D084F8430080
:1046A0000122206801F016FC21492068214A224B92
:1046B000884209D0904207D0984205D01F4DA842A9
:1046C00002D01F4DA84203D1456C45F40045456416
:1046D000206888420CD0B0F1804F09D01949884237
:1046E00006D01949884203D0904201D0984207D1A0
:1046F0008168164A1140062908D0B1F5803F05D0DF
:10470000016841F0010100E002E00160002030BDDD
:1047100084F83E00C4E784F83F00C1E784F8400015
:10472000BEE784F84100BBE784F84200B8E7000028
:10473000002C014000340140004001400044014091
:10474000004801400004004000080040070001004C
:104750002DE9F04117460D0004464FF0000619D030
:10476000042D1AD0082D1BD00C2D1CD0102D1DD0BF
:1047700094F8430002287CD0DDB1042D1CD0082D14
:104780001DD00C2D1ED0102D1FD094F843000128F1
:104790001ED0D1E094F83E00ECE794F83F00E9E742
:1047A00094F84000E6E794F84100E3E794F842000B
:1047B000E0E794F83E00EAE794F83F00E7E794F872
:1047C0004000E4E794F84100E1E794F84200DEE7B6
:1047D000002F75D0002B73D00220ADB1042D16D060
:1047E000082D17D00C2D18D0102D19D084F84300A7
:1047F00055485649564AB5B1042D28D0082D78D0D1
:104800000C2D75D001266FE084F83E00F0E784F8A7
:104810003F00EDE784F84000EAE784F84100E7E76D
:1048200084F84200E4E7D4F824C0CCF82C00606A95
:104830000163606A394642632268606A3432FDF778
:10484000D9FAE8BB2068C16841F4007114E0D4F8DB
:1048500028C0CCF82C00A06A0163A06A39464263E4
:104860002268A06A3832FDF7C5FA48BB2068C168E3
:1048700000E03AE041F48061C160012229462068ED
:1048800001F028FB33492068334A344B884209D071
:10489000904207D0984205D0314DA84202D0314D08
:1048A000A84203D1456C45F4004545642068884220
:1048B0000ED0B0F1804F0BD02B49884208D000E0D9
:1048C0003AE02A49884203D0904201D0984207D169
:1048D0008168274A1140062906D0B1F5803F03D0F0
:1048E000016841F0010101603046BDE8F08100E05F
:1048F00013E0D4F82CC0CCF82C00E06A0163E06A25
:10490000394642632268E06A3C32FDF773FA98B98F
:104910002068C16841F40061AEE7D4F830C0CCF83B
:104920002C00206B0163206B394642632268206BA8
:104930004032FDF75FFA08B10120D6E72068C16870
:1049400041F4805198E70000095F0008675F0008A4
:104950009F5F0008002C01400034014000400140EE
:1049600000440140004801400004004000080040AD
:104970000700010000680349884201D1FDF7C8BE65
:104980007047000000480140704790F884100129EA
:1049900018D0012180F884102421C0F88810016803
:1049A0000A680B6823F001030B6022F0005100221B
:1049B0004266036819602021C0F8881080F88420BE
:1049C000104670470220704710B50446D0F88C009E
:1049D000202801D0022010BD51B14AB10120E0666B
:1049E00000202067204601F09FFF010002D005E073
:1049F000012010BDE06E012802D00121084610BD43
:104A0000226810201062206850E8002F42F0100247
:104A100040E80023002BF6D1F0E7000070B50E4609
:104A200018490024164D097826E055F82420D2F8BC
:104A3000012182421ED155F82400D0F8050128B189
:104A4000804755F824003146FBF78CFC55F82410BC
:104A500091F80021D1F80101FFF7B6FF55F82400C5
:104A6000D0F80101D0F880000068016821F004014D
:104A7000016070BD641CE4B28C42D6D370BD0000EE
:104A80007C2E00207402002070B5044690F884004B
:104A900001281DD0012084F884002420C4F8880057
:104AA00020680568026822F00102026020688268BE
:104AB00022F060620A438260204601F03DFC2068DB
:104AC00005602020C4F88800002084F8840070BDB0
:104AD000022070BD70B5044690F8840001281DD0F6
:104AE000012084F884002420C4F888002068056828
:104AF000026822F0010202602068826822F06042AF
:104B00000A438260204601F017FC206805602020DF
:104B1000C4F88800002084F8840070BD022070BDB5
:104B20007CB517490024154D097824E055F8242058
:104B3000D2F8012182421CD155F8241091F80021AD
:104B4000D1F80101FFF740FF55F82400D0F801012A
:104B5000D0F880000068016821F004010160094874
:104B6000CDE90004AA2308A202210EA000F02CFA2D
:104B70007CBD641CE4B28C42D8D37CBD7C2E00206A
:104B800074020020F29900082E2E5C4253505C758E
:104B9000736172745C6273705F75736172742E639B
:104BA000000000005B6273705F75736172745D205A
:104BB0005553415254206572726F722063616C6C60
:104BC0006261636B207472696767657265642C202B
:104BD000696E7374616E636520696478205B256417
:104BE0005D00000010B5040003D0D4F8880010B1B7
:104BF00007E0012010BD002084F88400204600F06A
:104C000027F82420C4F888002068016821F00101F9
:104C10000160A06A10B1204601F0B0FB204601F00F
:104C20004BFD0128E6D02068416821F490414160A5
:104C30002068816821F02A0181602068016841F0C4
:104C4000010101602046BDE8104001F0FBBB0000FF
:104C50002DE9F04198B00446142111A8FBF782FB1E
:104C600044216846FBF77EFB2F492068884257D1D4
:104C700001200026CDE900066846FEF775FB08B165
:104C8000FCF764F82948016E41F480410166016E29
:104C900001F480411691C16C41F00201C164C06C05
:104CA00011A900F002001690C02011900220CDE959
:104CB00012060720CDE914601D48FDF745FC1E4D86
:104CC0001C484FF0800828601820C5E90106C5E996
:104CD00003686E614FF40057AE612846C5E9076767
:104CE000FDF728F808B1FCF731F8C4F88050AC6241
:104CF000114D10486035143028601920686005F1A6
:104D00000801102081E841016E61AE612846C5E9C5
:104D10000767FDF70FF808B1FCF718F8E567AC6214
:104D200018B0BDE8F08100000038014000100240DA
:104D30000004004830000240980E00207047704781
:104D40002DE9F8430446D0F888001F4615460E4664
:104D5000202802D00220BDE8F883AEB1A5B1002022
:104D6000C4F890002120C4F888001834FDF7CAFC6C
:104D7000A5878146E58754F8100C183C4FF02008B1
:104D8000B0F5805F02D003E00120E4E7206910B1B4
:104D90003546002610E000250EE08021204601F077
:104DA000CFFEB8B9D5B115F8010B21688862B4F807
:104DB0005600401EA4F85600B4F856004B464FF07B
:104DC000000200970028E8D14FF04001204601F092
:104DD000B7FE40B1C4F888800320BCE736F8020B68
:104DE000C0F30800E1E7C4F888800020B3E70000C2
:104DF00070B50446D0F88800202801D0022070BD8C
:104E000039B332B32165A4F85420A4F85620002108
:104E1000C4F890102120C4F88800E06FD8B1154B79
:104E2000C362E36F14481863E36F14485863E06F7C
:104E3000134681632068E56F00F128022846216D42
:104E4000FCF7D8FF38B11020C4F890002020C4F837
:104E50008800012070BD2168402008622068083069
:104E600050E8001F41F0800140E80012002AF5D10F
:104E7000002070BDE765000829660008F16400089D
:104E8000D0F88830202B01D00220704721B31AB30C
:104E90000165A0F85420A0F8562000218167C0F8D1
:104EA00090102121C0F88810416E4FF48052B1F16A
:104EB000005F816812D0914201D1016909B31249A2
:104EC0008167016851E8002F42F0800241E8002329
:104ED000002BF6D10020704701207047914201D18C
:104EE000016961B1094981670168083151E8002F02
:104EF00042F4000241E80023002BF5D1EAE704491F
:104F0000F1E70449DCE700008F6A0008DD6A000869
:104F1000276A0008D569000870477047FEE7F0B5BA
:104F200000230A24302537261F4610E0B4EB107FFB
:104F300002D905EB107C01E006EB107C01F813C0F0
:104F400001EB430C00015B1C8CF80170DBB2934257
:104F5000ECD3F0BD00EB8100006E00F0F84070472C
:104F60008068C0F3C00070478068C0F3C00070471D
:104F70008068C0F3000070478068C0F3800070470D
:104F80008068C0F380007047C06810F4406F01D0A3
:104F90000020704701207047042303EAD15310B565
:104FA00018444369C1F3045107248C40A3438A4049
:104FB0001343436110BD00EB8100016E21F00041FD
:104FC00011430166704700002DE9F041ADF5047D05
:104FD0000C4607464FF480761D469046314643A85E
:104FE000FBF7C0F9314603A8FBF7BCF98BAB3A4697
:104FF000FF2143A803F0E4F943A854B1012C0DD0DC
:10500000022C23D0032C1DD18A99434612A200956D
:1050100008E08A99434619A2009503E08A9943461D
:105020001FA20095CDE90110314603A803F0B4F9A1
:1050300003A8FBF7A2F982B22148022303A9006862
:1050400001F056FE0DF5047DBDE8F0818A994346D6
:105050001CA20095E6E700005B4552524F525D20CE
:105060003C25733E207C203C25643E207C203C2552
:10507000733E3A2025730D0A000000005B44454250
:1050800055475D203C25733E207C203C25643E2016
:105090007C203C25733E3A2025730D0A0000000059
:1050A0005B494E464F5D203C25733E207C203C25CD
:1050B000643E207C203C25733E3A2025730D0A0077
:1050C000700200205B5741524E5D203C25733E200C
:1050D0007C203C25643E207C203C25733E3A2025E4
:1050E000730D0A000EB5CDF80100684601F072FD9F
:1050F000014908600EBD0000700200203EB500248A
:105100001448009401944FF0A041029401604FF4C0
:105110004031C0E90114C46004210461C0E90541C3
:10512000047744770121016280F8244080F83840F8
:10513000C46380F84040FCF79DFB08B1FBF706FE16
:10514000694604480094FCF719F9002801D0FBF7E0
:10515000FDFD3EBD940A002030B589B0202168468F
:10516000FBF700F919481849002401604FF4403159
:10517000C0E90114C46004250461C0E90545047751
:1051800001214177016280F82440C462046380F801
:105190003810C46380F84040FCF76CFB08B1FBF7A3
:1051A000D5FD0B4800900620CDE901047F20059431
:1051B000CDE9030569460548FCF74AF9002801D006
:1051C000FBF7C4FD09B030BD00010050000B00200A
:1051D00000106032194808B5816C41F00401816407
:1051E000816C01F004010091816C41F00101816446
:1051F000806C002200F00100009005210B20FDF7DB
:105200000FFB0B20FDF7FEFA002205210C20FDF715
:1052100007FB0C20FDF7F6FA002205210D20FDF713
:10522000FFFA0D20FDF7EEFA002205210E20FDF712
:10523000F7FABDE808400E20FDF7E4BA001002407E
:1052400070B512481049012301600021416081605E
:10525000C1600374417483740625072214244561D8
:10526000C0E90624C0E90825C0E90A240263C0E9B0
:105270000D31C163FCF7ECFF002803D0BDE870409E
:10528000FBF764BD70BD000000640040CC0B002043
:1052900010B596B01C2211496846FBF74AF8002168
:1052A000684603F0CDFD0E4C0C491C2220601C31D9
:1052B00007A8FBF73EF8002107A803F0C1FD074946
:1052C00060601C2238310EA8FBF733F800210EA8CD
:1052D00003F0B6FDA06016B010BD000000990008F4
:1052E000000000202DE9F04387B014216846FBF749
:1052F00039F82948C16C41F00401C164C16C01F066
:1053000004010591C16C41F02001C164C16C01F040
:1053100020010591C16C41F00101C164C16C01F033
:1053200001010591C16C41F00201C164C06CDFF85C
:105330006C8000F002000590002242F2100140460D
:10534000FDF7DAF9DFF858904FF48057002239461C
:105350004846FDF7D1F97800009001250024CDE9F9
:105360000154694640460394FDF7EEF810200326E9
:10537000CDE90005CDE9024669464046FDF7E4F86F
:1053800000970396CDE9015469464846FDF7DCF8DD
:1053900007B0BDE8F083000000100240000800489C
:1053A00000040048084810B506490160002141602A
:1053B000FEF78AFC002803D0BDE81040FBF7C6BC0E
:1053C00010BD000000080650300C0020124810B537
:1053D000104901604FF48271416000214FF4E06296
:1053E000C0E902120222026101224261520282617C
:1053F0001822C0E9072107224162C0E90A120163AD
:105400004163FEF7A7FC002803D0BDE81040FBF77E
:105410009DBC10BD00300140440C0020124810B566
:10542000104901604FF48271416000214FF4E06245
:10543000C0E902120222026101224261520282612B
:105440001822C0E9072107224162C0E90A1201635C
:105450004163FEF77FFC002803D0BDE81040FBF756
:1054600075BC10BD003C0040A80C002010B598B0E1
:105470000024149415941C2168461694FAF772FFC0
:10548000342107A8FAF76EFF32483149C0E9001409
:105490002021816041F26801C0E903144461846104
:1054A000FFF755F808B1FBF751FC7020CDE9140463
:1054B00014A928481694FEF76BFD08B1FBF746FCCB
:1054C0006020CDE900040294039404940594002222
:1054D000694620480694FEF7A8FF08B1FBF736FCA2
:1054E000042269461B48FEF7A0FF08B1FBF72EFC1B
:1054F000082269461748FEF798FF08B1FBF726FC1B
:1055000041F25E0001900C2269461248FEF78DFFC1
:1055100008B1FBF71BFC079414200894CDE909405F
:105520004FF40050CDE90B400D9400030E94CDE9EB
:105530000F401194129407A906481394FEF7D6FC65
:1055400008B1FBF703FC0348FEF712FF18B010BDCB
:10555000002C01400C0D002010B58AB000240794E7
:1055600008941C2168460994FAF7FCFE1548144972
:10557000C0E90014D121C0E9024104618461FEF751
:10558000E6FF08B1FBF7E2FB079407A90D48099471
:10559000FEF7FEFC08B1FBF7D9FB6020CDE9000463
:1055A00002940422694607480494FEF73EFF08B1BE
:1055B000FBF7CCFB0348FEF7DBFE0AB010BD000092
:1055C00000040040580D0020184810B5164901602D
:1055D0004FF461214160002181600C22C160C0E96B
:1055E00004128161C161016241628162FFF7FAFACE
:1055F00008B1FBF7ABFB00210C48FFF76BFA08B1D1
:10560000FBF7A4FB00210948FFF73EFA08B1FBF7BE
:105610009DFB0648FFF7B9F9002803D0BDE810400C
:10562000FBF794BB10BD000000380140040E0020C1
:1056300010B500220F49104801F071FE08B1FBF7C8
:1056400085FB0E490C4802F042F808B1FBF77EFBDF
:105650000B49094801F0CAFC08B1FBF777FB064883
:1056600002F0B0F8002803D0BDE81040FBF76EBB95
:1056700010BD000010000020A0140020CC0100206C
:1056800064000020FEE7000010B50446007B50B126
:10569000012808D0022808D0032833D10020BDE813
:1056A000104000F0E7B90920F9E7032000F0E2F923
:1056B000226803201168B1F1824F01DC207420E0E0
:1056C000114B994201DB02211AE0116D0F4A914200
:1056D00002DA0F4A914201D3012111E061680D4ABB
:1056E00091ED930AB0EEC00A10EE101A914201DB60
:1056F000052105E0A168084A4968914202DB0421BE
:105700002174207310BD0000676666412FBAE83F20
:105710002FBAE8BF3433974100008242FEE72DE9FB
:10572000F05F044640F2064940F2024B4FF0000A97
:1057300085E1B0F8441011F00F0638D030F826801B
:105740005FEA08417DD530F8261040F68F7211408F
:1057500041F0800120F8261006EB860004EBC0051E
:1057600095F85C0105F5A87500286BD0E87802284B
:1057700069D02978206830F8212048F68F731A40C4
:1057800048F2C0031A4320F821202978206830F815
:1057900021205204B0F8502002EB00037DD50BEB22
:1057A000C101595A8F05BF0D78D02A89A4E0C906D6
:1057B00029D4018848F60F72114041F4004101805C
:1057C000206804F11005B0F85010227C01440BEB66
:1057D000C200085AC0F30900E062616A08446062CE
:1057E00000212046FDF7A0F8207B0028A0D0A86962
:1057F00000289DD1207B216840F08000A1F84C005A
:1058000084F80CA01BE1018804F5A8750A051FD5D2
:10581000B0F850102A78014409EBC200085A04F588
:105820002671C0F30903EB61EA88206802F087FD66
:105830002068018840F68F72114041F0800101809C
:1058400002E071E03DE049E02046FDF7F8FCF6E0BB
:105850000904D7D5018840F68F72114041F08001CC
:1058600001802068B0F850102A78014409EBC2008A
:10587000085A83059B0DEB610DD0696959B1EA881F
:10588000206802F05CFDE9696869084468610021EC
:105890002046FDF752F8206801E026E024E0018868
:1058A0000A050DD4C1F30131032909D001884BF653
:1058B0008F72114081F4405148F2800211430180FF
:1058C000BDE02068B0F850102B780A1809EBC3012E
:1058D000515A8F05BF0D13D0EA880DE04246294684
:1058E0002046FDF786F807460AE009EBC101595A40
:1058F0008F05BF0D04D06A893B46696902F01FFD20
:10590000E8693844E861686938446861A86910B199
:105910002869B84204D929782046FDF70EF803E03B
:105920002946206802F043FB5FEA08602DD506EBAC
:10593000860004EBC001206830F8262048F60F737B
:105940001A4042F4004220F82620C87C1031012879
:105950001CD05FEAC8506ED42068B0F850200B7895
:1059600002440BEBC300105A8A69C0F3090082425B
:105970005AD9121A8A6159D04A6902444A61CA69DD
:105980001044C861206802F012FB58E0C1F818A06A
:10599000087B534620B35FEA486022D5487810B1AF
:1059A000012814D03EE02068B0F8502010440A7856
:1059B00000EBC200B0F80224C2F30902A0F80224EE
:1059C000B0F8022442F40042A0F802242AE0206841
:1059D000B0F8502010440A7800EBC200A0F802345E
:1059E00020E04A78206812B1012A13D01AE0B0F8FA
:1059F000502010440A7800EBC200B0F80624C2F32D
:105A00000902A0F80624B0F8062442F40042A0F8E7
:105A1000062407E0B0F8502010440A7800EBC200DA
:105A2000A0F80634097802E0C1F818A0D9B22046DF
:105A3000FCF77AFF03E042462046FDF748F820686D
:105A4000B0F8441009043FF574AE0020BDE8F09FA3
:105A500070B505460024E0B2294600F079F8641CD0
:105A60002404240CF7D000F0A3F8BDE8704000F047
:105A700065B80000304982B00F2857D2DFE800F047
:105A8000080A151A20252B5630353B41444A500050
:105A9000088841E0B1F80300ADF8000048798DF8BE
:105AA0000200009802B0FFF7D3BFC888ADF800002D
:105AB000087AF4E7B1F80900ADF80000C87AEEE71B
:105AC0008889ADF80000887BE9E7B1F80F00ADF8F0
:105AD0000000487CE3E7488AADF80000087DDEE777
