:020000040800F2
:10000000A87000202D0400086970000869680008C5
:10001000D16F0008B1230008E39C00080000000035
:100020000000000000000000000000006D03000858
:100030009726000800000000C90300089176000818
:100040004704000847040008470400084704000864
:100050004704000847040008470400084704000854
:10006000470400084704000847040008FD2300086F
:10007000092400081524000821240008470400086A
:100080004704000800000000470400084704000877
:10009000799C00089D260008A9260008470400084E
:1000A000470400084704000839770008470400089F
:1000B00047040008470400084704000847040008F4
:1000C00047040008470400084704000847040008E4
:1000D00047040008470400084704000847040008D4
:1000E00047040008470400084704000847040008C4
:1000F0004704000847040008470400080000000007
:100100000000000047040008000000004704000849
:1001100047040008000000004704000847040008E6
:100120004704000847040008470400084704000883
:100130004704000800000000000000004704000819
:100140004704000847040008000000000000000009
:10015000000000000000000000000000000000009F
:10016000000000000000000000000000470400083C
:10017000470400080000000000000000000000002C
:10018000000000004704000800000000000000001C
:10019000000000000000000000000000000000005F
:1001A00000000000000000004704000847040008A9
:1001B0004704000847040008470400080000000046
:1001C00000000000470400080000000000000000DC
:1001D000470400084704000800F002F800F0B6F8F1
:1001E0000AA090E8000C82448344AAF10107DA4592
:1001F00001D100F0ABF8AFF2090EBAE80F0013F02E
:10020000010F18BFFB1A43F00103184720AB000091
:1002100040AB00000A444FF0000C10F8013B13F013
:10022000070408BF10F8014B1D1108BF10F8015B4F
:10023000641E05D010F8016B641E01F8016BF9D142
:1002400013F0080F1EBF10F8014BAD1C0C1B09D199
:100250006D1E58BF01F801CBFAD505E014F8016B0B
:1002600001F8016B6D1EF9D59142D6D3704700009D
:100270000023002400250026103A28BF78C1FBD8AF
:10028000520728BF30C148BF0B6070476E2900F08D
:10029000E984702900F0498666290AF06883652997
:1002A0000AF0658367290AF0628361290AF0618395
:1002B00003681B0A28BF41F08001692900F004820D
:1002C000642900F00182752900F0FE816F2900F099
:1002D000D785782900F01586E92900F07185E42991
:1002E00000F06E85F52900F06B85EF2900F0D485CC
:1002F000F82900F014860368DB0928BF41F080016B
:10030000632900F0F284732900F0F784E32901F0F7
:100310000F82F32901F01482002070471FB50AF004
:1003200021FB9DE8030000F0D5FB01F063FA040017
:10033000002000210AF000FB401C6060002000212A
:100340000AF0E4FAE0601FBD10B510BD01F024FA18
:100350001146FFF7E3FF09F045FD01F0FDFA03B494
:10036000FFF7F2FF03BC01F06DFB00002C4B196896
:100370000868B0E8F04F80F30988BFF36F8F4FF043
:10038000000080F3118870470000000008480068F2
:10039000006880F308884FF0000080F3148862B68C
:1003A00061B6BFF34F8FBFF36F8F00DF00BF00BF99
:1003B00008ED00E0DFF80C00016841F47001016015
:1003C000704700BF88ED00E0EFF30980BFF36F8F47
:1003D000134B1A681EF0100F08BF20ED108A20E999
:1003E000F04F106009B44FF0500080F31188BFF354
:1003F0004F8FBFF36F8F0AF0B3F84FF0000080F318
:10040000118809BC19680868B0E8F04F1EF0100F99
:1004100008BFB0EC108A80F30988BFF36F8F704774
:1004200088000020EFF305807047000009488047EE
:1004300009480047FEE7FEE7FEE7FEE7FEE7FEE7C6
:10044000FEE7FEE7FEE7FEE704480549054A064BDE
:100450007047000029770008D9010008A830002063
:10046000A8700020A8600020A860002070B5064693
:1004700000F014FB056806F10B0020F00704B442FD
:100480009CBF002070BD2B466A68BAB11068A042BC
:1004900010D304F1080188423CBF5068586007D36C
:1004A0005168101941601168091B0160586014609F
:1004B000101D70BD13465268002AE7D12146284618
:1004C00000F0F4FA0028DED170BD70B50446051FB7
:1004D00000F0E4FA0068002C14BF446870BD002CE2
:1004E00018BFAC423CBF20466468F8D301680A18C4
:1004F000AA4218BF456003D12A680546114401602D
:1005000028684119A1421CBF6C6070BD61686960B8
:1005100021680844286070BD53EA020C00F069802D
:100520002DE9F04B4FF00006002B1FBFB3FA83F507
:1005300003FA05F424FA05F65E4012BF1643B2FA38
:1005400082F502FA05F4C5F120051EBF22FA05FC6A
:1005500044EA0C04203556EA044C4FEA144418BF10
:10056000641C4FF000084FF00009904271EB030C3F
:1005700039D3002919BFB1FA81F701FA07F6B0FAA9
:1005800080F700FA07F6C7F120071EBF20FA07FC24
:1005900046EA0C062037B6FBF4FCA7EB0507103F34
:1005A00007F01F0BCBF120060CFA0BFB2CFA06F61A
:1005B00044BFB3460026202FA4BF5E464FF0000B79
:1005C0005BEA060C08BF4FF0010B19EB0B09ABFB04
:1005D000027C48EB0608C01B06FB02CC0BFB03CCDD
:1005E00071EB0C01C1E70B46024641464846BDE8A7
:1005F000F08B13B54FF000004FF00001AFF3008017
:10060000BDE81C40704700007CB51D4616460C0036
:10061000009001D02044401E074B7B442A46694687
:100620000190304600F037FB05461CB100206946BA
:1006300000F044FB28467CBDA90600000FB47CB541
:100640000C0009AA009001D02044401E084B7B44B6
:1006500069460190089800F01EFB05461CB1002079
:10066000694600F02BFB28467CBC5DF814FB0000BB
:100670007506000070B50C460546012A05D028789D
:10068000800600D5EA69002302E0012305E05B1C37
:10069000934202D2E05C0028F9D1A869E618C01A9A
:1006A000A861286A18442862284600F049FA04E044
:1006B000D5E9012114F8010B9047B442F8D328463C
:1006C00000F054FA70BD00002DE9F0410646002408
:1006D00010687529314616A510D000F058FA002888
:1006E00002DA404213A507E031688A0701D512A556
:1006F00002E0490704D511A5012401E000F050FAF9
:1007000000210A2206F1240709E0B0FBF2FCB0FB4D
:10071000F2F302FB1C00303078541846491C0028C4
:10072000F3D123462A463046BDE8F04100F041BAF5
:10073000000000002D0000002B0000002000000041
:100740002DE9F05F894604464FF0000ADFF874B1E6
:10075000FB44C0F820A02046E1688847002874D0F8
:10076000252806D0D4E901219047206A401C206248
:10077000F1E700265F462046E168884720280546C5
:1007800007DB312D05D2781910F8200C08B106438B
:10079000F1E7B00701D526F00406C4F81CA0002735
:1007A000C4F818A02A2D09D0284609F0C3FA38B396
:1007B00004EB8708303DC8F8185019E059F8041BBD
:1007C000204604EB87029161E1688847012F0546C6
:1007D00018D1E069002820DA26F020061DE0D8F8BC
:1007E000180000EB800005EB40003038C8F8180016
:1007F0002046E1688847054609F09CFA0028EED1BA
:10080000012F0AD02E2D08D12046E16888477F1C91
:100810000546022F46F02006C4DBA069002803DA53
:10082000404246F00106A061F00701D026F0100614
:100830006C2D0BD0682D09D04C2D39D06A2D35D0B8
:10084000742D35D07A2D33D016E038E0E1682F468C
:1008500020468847B842054609D16C2F26D04FF470
:100860008060E168064320468847054604E06C2F17
:100870001AD04FF4807006430DB3A5F1410019283A
:1008800002D8203546F400664A46294620462660AE
:100890004E46FFF7FBFC80B101280BD0F61D26F079
:1008A000070000F1080956E74020E4E78020D8E778
:1008B0000020D6E706F104094DE7284652E7206AF2
:1008C000BDE8F09F66A4000010B5431C02E010F8DC
:1008D000011B71B18107FAD14FF0013202C88C1AA5
:1008E0008C4314EAC211F9D0C01A0A0603D0C01E04
:1008F00010BDC01A10BD0A0401D0801E10BD09022F
:10090000FCD0401E10BD032A40F2308010F0030CD2
:1009100000F0158011F8013BBCF1020F624498BF52
:1009200011F801CB00F8013B38BF11F8013BA2F1EF
:10093000040298BF00F801CB38BF00F8013B11F06A
:10094000030300F02580083AC0F0088051F8043B0A
:10095000083A51F804CBA0E80810F5E7121D5CBF77
:1009600051F8043B40F8043BAFF30080D20724BFAA
:1009700011F8013B11F801CB48BF11F8012B24BF3E
:1009800000F8013B00F801CB48BF00F8012B70478D
:1009900010B5203AC0F00B80B1E81850203AA0E81A
:1009A0001850B1E81850A0E81850BFF4F5AF5FEA4E
:1009B000027C24BFB1E81850A0E8185044BF18C901
:1009C00018C0BDE810405FEA827C24BF51F8043BA8
:1009D00040F8043B08BF7047D20728BF31F8023BFC
:1009E00048BF11F8012B28BF20F8023B48BF00F890
:1009F000012B704702F0FF0343EA032242EA02425E
:100A000000F002B84FF000020429C0F0128010F08C
:100A1000030C00F01B80CCF1040CBCF1020F18BFDA
:100A200000F8012BA8BF20F8022BA1EB0C0100F06D
:100A30000DB85FEAC17C24BF00F8012B00F8012B40
:100A400048BF00F8012B70474FF0000200B5134675
:100A500094469646203922BFA0E80C50A0E80C50DE
:100A6000B1F12001BFF4F7AF090728BFA0E80C508F
:100A700048BF0CC05DF804EB890028BF40F8042B88
:100A800008BF704748BF20F8022B11F0804F18BFF5
:100A900000F8012B70477047704770470048704757
:100AA00050300020704770477047704738B5044693
:100AB0000A4600206946AFF30080002808BF38BD11
:100AC00002460099204600F03FFA012038BD01207F
:100AD00000F05ABEF8B5AFF30080054600200C4682
:100AE000102000BF0646A819A0420DD9324669461B
:100AF0000020AFF30080070008BF00F045FE00981B
:100B0000A04218BF0546C419FFF7C8FF0560074695
:100B1000F01D20F007004619284600F00AF8B442FC
:100B200008BFF8BDA21B31463868BDE8F84000F0A8
:100B30000BBA00210160C0E9011070471020704716
:100B400070B5044685690068C10601D5302600E00D
:100B50002026C00707D070BDD4E901213046904758
:100B6000206A401C20626D1EF6D570BD70B504462B
:100B700085690078C00707D170BDD4E90121202024
:100B80009047206A401C20626D1EF6D570BD096832
:100B90004A0501D540B27047C905FCD500B270477F
:100BA00009684A0501D5C0B27047C905FCD580B2B5
:100BB00070472DE9F0470D4699469246044600F1EC
:100BC00024080168880604D5E06921F0100121603D
:100BD00000E00120A84201DD471B00E00027A169D9
:100BE0007A1902EB0900081AA0612078C00602D425
:100BF0002046FFF7A5FF002608E0D4E901211AF8F6
:100C000006009047206A401C761C20624E45F4DBAB
:100C10002078C0060AD52046FFF792FF06E0D4E907
:100C2000012130209047206A401C2062381EA7F125
:100C30000107F4DC07E0D4E9012118F8050090472A
:100C4000206A401C2062281EA5F10105F3DC204625
:100C5000FFF78CFF2078000602D50220BDE8F08760
:100C60000120FBE711680268006A530501D508708E
:100C70000AE0D30501D5088006E0130603D5C217A4
:100C8000C1E9000200E008600120704701694A1CC8
:100C900002610878704700B58FB0CDE901310021BD
:100CA000059105497944CDE9031011466846FFF7DF
:100CB00047FD0FB000BD0000E5FFFFFF0A6802F826
:100CC000010B0A607047D1E900239A4202D2531CFB
:100CD0000B601070704710B5436913B1AFF300801B
:100CE00001E0FFF7C7FC012010BD127800F12401DC
:100CF0000A7000224A700122EDE711684FF0FF32BE
:100D0000E9E700002DE9FF5F15468A460446DFF853
:100D1000AC80F8440027D8E900103E46CDE9001029
:100D200010E03AF816106A4602A800F00DFD411CCA
:100D300007D02178890603D5E269391891420DD888
:100D40000744761C2078800602D5E069B84205DDAC
:100D5000AE42E6DB3AF816000028E2D1A069C01BDB
:100D6000A0612046FFF7ECFED8E90010CDE90010A5
:100D7000002017E03AF818106A4602A800F0E4FCD8
:100D8000B0F1FF3F81460BD000250DF1080B05E0C7
:100D9000D4E901211BF8050090476D1C4D45F7D3A0
:100DA00008F10100B0428046E4DB206A384420624A
:100DB0002046FFF7DBFEBDE8FF9F0000B69E000067
:100DC0002DE9F0418046D21D22F007020025D2E92C
:100DD0000002F52915A614D0011E72F1000106DAF1
:100DE0000023D0EB030063EB020211A608E0D8F861
:100DF00000108B0701D50FA602E0490701D50EA60A
:100E000001251146002408F1240704E000F0B6F89B
:100E100030323A55641C50EA0102F7D12B46324673
:100E200021464046BDE8F041FFF7C3BE0000000088
:100E30002D0000002B0000002000000030B4002135
:100E400000F1240408E002F00705D208303542EA38
:100E50004372DB086554491C52EA0305F3D1046868
:100E6000002310A2250708D504F020040C4304D069
:100E7000C46901230CA2641EC46130BCFFF799BE93
:100E800010B5044621461068FFF78AFE0246204648
:100E9000BDE810400023D1E7D21D22F00701D1E9BF
:100EA0000023CBE70000000030000000F0B40D4646
:100EB0000188090502D5214C7C4402E01F4C7C448A
:100EC0000E34002100F1240608E002F00F07120999
:100ED000E75D42EA03721B097754491C52EA030793
:100EE000F3D102780023120704D5702D06D009B182
:100EF000022311342246F0BCFFF75BBE01231034FD
:100F0000F8E770B504460D4621461068FFF748FE25
:100F1000024629462046BDE870400023C6E7D21DA0
:100F200022F00703D3E90023C0E70368126843F007
:100F3000200303600823C3610023B7E7189D000066
:100F40000048704748300020034640688C4600281F
:100F500018BF88423CBF03464068F8D3186818445D
:100F6000884207D00CF1030020F00700001D411A51
:100F7000521A0146081D0A60FFF7A7BA30B5B0F152
:100F80000A024FEA900E71F100034EEA817EB0EB47
:100F90000E0061EB91014FEA101E4EEA017E10EB4C
:100FA0000E0041EB11114FEA102E4EEA016E10EBCC
:100FB0000E0041EB11214FEA104E4EEA014E10EBAC
:100FC0000E0041EB1141401841F100014FEAD00001
:100FD00040EA41704FEAD10110EB80054FEA8104ED
:100FE00044EA907444EB01046D1944EB0404521B71
:100FF000A3414FF0000348BF0A3200D530BD401C6A
:1010000041F1000130BD70472DE9FF4F0C461E46EF
:101010004FF0FF378BB0D2E90001DDF860800A9015
:101020008A46C1F30A5505B93D46002108464FF0EE
:101030000000BAF1000F00F4400005DA00EB800078
:101040004FF4400101EA50004FEA9059B9F1010F05
:1010500000DDB9460A9850EA4A000ED044F6105016
:10106000A5F2FF3545432F14B8F1000F1ED075428D
:10107000291E1EDDC9F100021CE0B8F1010F4FF07E
:10108000000001D0302103E0F24305E02154401C70
:10109000B042FBDB30460022002121540B99C1F8FD
:1010A0000880C1E900200FB0BDE8F08FBD1B6D1CAA
:1010B000DEE74A4600DA694206A800F0DFFB06AB2D
:1010C00093E8070003AB83E8070050460A9900F055
:1010D000DFFC8DE80700A0F500501F380090039852
:1010E000002D09DD42F21F014A46084403A903907E
:1010F000684600F03EFF08E0A0F500504A461F3861
:1011000003A90390684600F048FF8DE8070000043B
:10111000000C03D04FF0FF30410800E01046B8F15A
:10112000000F03D00022009215461EE0751E05D464
:10113000FFF724FF303262556D1EF9D5B346012208
:10114000084302D000227F1C04E02078302801D11F
:1011500000227F1E002A099786D01DE0112D07DA94
:10116000FFF70CFF303262556D1C50EA0102F5D1D9
:10117000084302D00098C8B10EE00021681E05E0C7
:10118000235C625C63542254401E491C8142F7DB9D
:10119000AB46A81B401E0990002004F80B000B98DA
:1011A000099AC0F80880C0E9002B7CE711264FF0AF
:1011B000000859E72DE9F04F88460446D21D22F079
:1011C000070191B0D1E90001CDE90A0108F08AFDDB
:1011D00002460B98C00F01D02D2007E02068810740
:1011E00001D52B2002E0202101EAC000032A09904A
:1011F00001D0072A05DB03464146204600F0FEFAEF
:101200000BE12078800601D5E06900E00620B8F106
:10121000650F814606D0B8F1660F18D0B8F1670F98
:1012200070D131E00020B9F1110F009001DB1123E2
:1012300001E009F101030AAA01A90CA8FFF7E4FEE5
:10124000DDE90C70002609F10105834647E0012025
:101250004B4600904FF000470AAA01A90CA8FFF7DF
:10126000D3FEDDE90DB00C995D46002610B909F1F9
:1012700001000D18B9EB050003D4C0F1FF3609F1E8
:101280000105A5EB09002BE0B9F1010F01DA4FF0E0
:1012900001090020B9F1110F0090484601DD11232A
:1012A00000E003460AAA01A90CA8FFF7ADFEDDE99C
:1012B0000C704D4600268346207800070AD4AB45C3
:1012C00000DA5D4601A8012D04DD411911F8011C69
:1012D000302907D04F4502DA17F1040F04DA012054
:1012E00082460FE06D1EEEE7002F02DCED1B3E4450
:1012F00003E0781CA84200DD7D1CB81B00F1010A48
:101300004FF000472078000703D4AA4501DB4FF0D7
:10131000FF3A0021B7F1004F0DF143088DF843105B
:1013200024D002202B23002F01DA7F422D230A2113
:10133000021EA0F1010000DC5FB197FBF1FC97FBFE
:10134000F1F201FB1C7C17460CF1300C08F801CDC2
:10135000EEE7A8F1010003702188090501D54521B8
:1013600000E06521A0F1010800F8011C09980FA90F
:10137000A1EB0807FF1D00B10120411901EBEA7044
:10138000A1693844081A401EA0612078C00602D422
:101390002046FFF7D5FB099828B1D4E901219047F1
:1013A000206A401C20622078C00622D52046FFF724
:1013B000C7FB1EE0002E04DBB34502DD01A8805D03
:1013C00000E03020D4E901219047206A401C2062CF
:1013D000761CAAF101005FEA000A0AD100F00AFABD
:1013E000C0680168405CD4E901219047206A401C34
:1013F0002062281EA5F10105DCDC07E0D4E901210B
:1014000018F8010B9047206A401C2062381EA7F193
:101410000107F3DC2046FFF7A9FB032011B043E6E8
:101420002DE9F04F04460D46D21D22F0070089B089
:10143000D0E9009248461746394608F053FC024668
:10144000F80F01D02D2307E02068810701D52B2359
:1014500002E0202101EAC0038DF820300BB1012009
:1014600000E00020032A824601D0072A04DB294637
:10147000204600F0C3F93DE12078800601D40D2517
:1014800000E0E569C7F30A560D2D49DA00214FEA5D
:10149000175B08464FF00000002F00F4400007DA09
:1014A00000EB80004FF4400100EBD07001EA6000D7
:1014B0008115012901DD4FF0FF3100224FEA850C33
:1014C000BCF1180F06D31346ACF118004FF0805250
:1014D000C24003E04FF4801323FA0CF30CF10C0C20
:1014E000BCF1200F04D3ACF1200C09FA0CF001E0A0
:1014F00007FA0CF000294FF0004801DD18B90FE0A1
:101500000ED140450CD319EB02095F4121B940458A
:1015100002D19F4329EA0209BBEB175F00D0761C7A
:101520002088000502D57B48784402E07948784459
:10153000193808AA302302F80A30037C0AF10101A5
:10154000002E0AF1020A53546A4602DC4FF03001C1
:1015500001E04FF031014FF001088DF8001002D08A
:10156000A6F2FF3603E059EA470100D06A4E002D8B
:1015700002DC2178090704D54FF002082E218DF8EE
:101580000110C44600210BE0C7F303433F01C35CD5
:10159000491C6D1E02F80830052908F1010801DA1E
:1015A000002DF1DC00210CE000EB1973491C1B78C5
:1015B0006D1E082902F808304FEA091908F10108E0
:1015C00001DA002DF0DC2178890602D514E0A8F1BB
:1015D0000108E04505DD02EB080111F8011C302986
:1015E000F5D0B8F1000F07DD02EB080111F8011C7E
:1015F0002E2901D1A8F10108002D05DD3E2102F8B8
:1016000008106D1E08F10108407C002E02F8080049
:1016100008F1010804DA2D20764202F8080002E001
:101620002B2002F808000A214FF47A70864208F154
:1016300001080BDB96FBF0F3303302F8083096FB21
:10164000F0F308F1010800FB136601E0642E0CDBE7
:10165000642096FBF0F3303302F8083096FBF0F389
:1016600008F1010800FB136601E00A2E06DB96FB79
:10167000F1F0303002F8080008F1010896FBF1F0B3
:1016800001FB1060303002F80800A16908F1010880
:1016900008EB050202EB0A00081AA0612078C006D8
:1016A00002D42046FFF74CFA216A08AE01EB0A008B
:1016B000206204E0D4E9012116F8010B9047BAF149
:1016C000010AF7D22078C00602D52046FFF738FA83
:1016D0006E4609E016F8010B3E280FD0D4E901212F
:1016E0009047206A401C2062B8F10108F2D22046DF
:1016F000FFF73CFA09B00320BDE8F08F206A2844C8
:10170000206203E0D4E90121302090476D1EEBD325
:10171000F8E70000E396000002FCFFFF10B5436904
:1017200013B1AFF3008001E0FFF7ECFA012010BD28
:10173000128800F1240182840022C2840122EDE794
:1017400011684FF0FF32E9E770B516460C460546C2
:1017500000F048F8036893F80101012806D0FF2C37
:101760000FD8185D68B101202C7070BDD3F8070147
:101770003246214603F2071303442846BDE8704071
:1017800018474FF0FF3070BD10B500F0F3F8BDE81A
:10179000104000F0EAB870477546FFF7D1FBAE463F
:1017A00005006946534620F00700854618B020B56D
:1017B000FEF74AFEBDE820404FF000064FF000075C
:1017C0004FF000084FF0000B21F00701AC46ACE8E9
:1017D000C009ACE8C009ACE8C009ACE8C0098D4656
:1017E0007047000010B500F005F8001D10BD00BFE7
:1017F0004991000000487047683000202DE9F04111
:101800001F46044603260168072A01F4006004DB32
:1018100008B116A505E016A503E008B115A500E07E
:1018200015A521F010002060A069C01EA0610FB1B5
:10183000401EA0612046FFF783F94FB1D4E9012192
:1018400038469047206A401C2062C01C206206E097
:10185000206AFAE7D4E9012115F8010B9047761EBA
:10186000F8D22046FFF782F9BDE8F0814E414E00E4
:101870006E616E00494E4600696E66002DE9F047C4
:10188000814616468AB0334878440DC88DE80D006D
:1018900030487844801C03AC0DC884E80D0041F644
:1018A0009B300844372190FBF1F290FBF1F5A5F154
:1018B000800501FB12041B3C02D56442012000E0BC
:1018C0000020DFF890A080460027FA44AAF1BE0A63
:1018D0000DE0E00709D03246684607EB47010AEB06
:1018E000810100F05AFB8DE8070064107F1C002C7A
:1018F000EFD1184F7F44AC3F18E0E80714D007EB56
:1019000004100DF1180A90E80E008AE80E00C06875
:10191000F04201D198190890324606A903A800F0B8
:101920003CFB03AB83E807006D10641C002DE4D181
:1019300032466946B8F1000F03A802D000F019FB47
:1019400001E000F02AFBC9E90001C9F808200AB04B
:10195000BDE8F0871494000010B50446AFF3008092
:101960002046BDE81040FEF7FABC002801D000F088
:1019700069B8704710B5012805D0002103A000F018
:1019800067F8012010BD09A1F8E70000534947524C
:10199000544D454D3A204F7574206F66206865613F
:1019A00070206D656D6F7279000000003A20486507
:1019B0006170206D656D6F727920636F72727570E2
:1019C000746564004FF0013C50F8042B51F8043B5F
:1019D0009A4221D1A2EB0C03934313EACC1317D103
:1019E00050F8042B51F8043B9A4215D1A2EB0C039A
:1019F000934313EACC130BD150F8042B51F8043B5A
:101A00009A4209D1A2EB0C03934313EACC13DBD027
:101A10004FF00000704700BFD01A01BAB1FA81F14F
:101A200001F0180122FA01F0CB40C1F12001DBB234
:101A3000C0B2C01A2CFA01F3D11A914311EAC311B2
:101A4000E6D1704701491820ABBEFEE72600020030
:101A500070B505460C460A2000E06D1C00F011F838
:101A600035B128780028F8D102E0641C00F009F8AC
:101A700014B120780028F8D1BDE870400A20AFF3F7
:101A8000008008B569468DF800000320ABBE08BD94
:101A90005FEA400C08BF91F0000F4FEA8C234FEA39
:101AA000C12243EA51514FEA1C5018BF00F5F040E3
:101AB0004FEA300018BF41F000415FEA6C5C00F073
:101AC0002980BCF1FF3F08BF40F080407047130CF5
:101AD00006BF12044FF0100C4FF0000C130E04BFA1
:101AE00012020CF1080C130F04BF12010CF1040CCC
:101AF000930F04BF92000CF1020CD30F04BF5200ED
:101B00000CF1010C11464FF00002A0F11F00A0EBF8
:101B10000C00704711F0004F08BF704731F00041D2
:101B20003FF4D5AF0B0C06BF09044FF0100C4FF07B
:101B3000000C0B0E04BF09020CF1080C0B0F04BFC4
:101B400009010CF1040C8B0F04BF89000CF1020C8D
:101B5000CB0F04BF49000CF1010CCCF12003A0EB2A
:101B60000C0022FA03F302FA0CF241EA030100F13D
:101B70000100704720F07F4C80EA030023F07F478C
:101B8000ACEB070303F57C5300F0004003F1FF03C7
:101B90002DE980494FEA154B09B44FEA144325EA71
:101BA0000B4E24EA03480FF2042606EB13274908DC
:101BB0003E785FEA320203FB0667C7F5000707FBC2
:101BC00006F64FEA54374FEAD64606F1020607FBFF
:101BD000066CCCF1005C4FEA1C472CEA074C07FB73
:101BE00006F40CFB06F504EB15464FEA961634BFD7
:101BF00000204FF000404FEAD13706FB07FC4FEAC8
:101C00001C4C0CFB0BF7D21B03FB0CF761EB070121
:101C10000CFB0EF7B0EB074072EB17420CFB08F71A
:101C200034BFA2EB0742B2EB074261EB17414FEA28
:101C30000C444FEA910706FB07FC4FEA1C4C0CFBD7
:101C40000BF7B0EBC74072EB573203FB0CF734BF16
:101C5000A2EBC742B2EBC74261EB57310CFB0EF768
:101C6000B0EBC70072EB57720CFB08F734BFA2EB66
:101C7000C702B2EBC70261EB5771039F4FEA816164
:101C800041EA921104EBCC044FEAD1374FEA826269
:101C900006FB07FC42EA90124FEA80604FEA1C4CB8
:101CA0000CFB0BF7D21B03FB0CF761EB07010CFBE2
:101CB0000EF7B0EB074072EB17420CFB08F734BF8E
:101CC000A2EB0742B2EB074261EB17414FEA8C559A
:101CD0004FEA910704EB9C2406FB07FC4FEA1C4CDF
:101CE0000CFB0BF7B0EBC74072EB573203FB0CF762
:101CF00034BFA2EBC742B2EBC74261EB57310CFBDA
:101D00000EF7B0EBC70072EB57720CFB08F734BF4D
:101D1000A2EBC702B2EBC70261EB577115EB4C2582
:101D20004FEA816141EA92114FEA82624FEAD1376C
:101D300042EA901206FB07FC44F100044FEA80607F
:101D40004FEA1C4C0CFB0BF7D21B03FB0CF761EBAF
:101D500007010CFB0EF7B0EB074072EB17420CFBD0
:101D600008F734BFA2EB0742B2EB074261EB174121
:101D700015EB1C154FEA813141EA92414FEA82325C
:101D800042EA90424FEA80304FEA0C7644F1000478
:101D900048EA03434EEA0B484FF0000EB2EB080C42
:101DA00071EB030724BF624639464EEB0E0E4FF02F
:101DB000000B0018524149414BEB0B0BB2EB080CE6
:101DC00071EB03077BF1000B24BF624639464EEBF3
:101DD0000E0E4FF0000B0018524149414BEB0B0B1C
:101DE000B2EB080C71EB03077BF1000B24BF6246DA
:101DF00039464EEB0E0E51EA020718BF46F00106B7
:101E000016EB0E7655F1000254F1000103D5BDE842
:101E10008901BDE80088BDE88901BDE80048B61920
:101E2000524141EB0101A3F10103704780807F7EA5
:101E30007D7C7B7A79787776767574737271717040
:101E40006F6E6E6D6C6C6B6A6A69686867666665F2
:101E50006464636362616160605F5F5E5E5D5D5C80
:101E60005C5B5B5A5A5959585857575656555555F1
:101E70005454535352525251515050504F4F4F4E51
:101E80004E4D4D4D4C4C4C4B4B4B4A4A4A4949499F
:101E900048484847474747464646454545444444E1
:101EA000444343434342424242414141002B26D4F2
:101EB000770021D01CB54FEA370703B44FF010006C
:101EC0004FF010014FF000000FBCBDE810400BF1C7
:101ED000010BBBF1010F08BF5FEA170722BF12F128
:101EE000010211F101014FF0004143F1000300F044
:101EF000004043EA00007047F9D35708DAE746EAA2
:101F0000064613F1400F4FEA16461FDD13F1200F6E
:101F1000DFBF16430A46002120335B42C8D0C3F11D
:101F2000200746EA064602FA07F74FEA164646EA4F
:101F30000706C3F1200722FA03F201FA07F721FA94
:101F400003F14FF0000342EA0702B1E746EA020656
:101F500046EA06464FEA164646EA0106BCBF46EA8E
:101F60000646360C4FF000034FF000024FF0000120
:101F70009EE72DE9C048934630B491E8380007C881
:101F800031EA400C48BF34EA430C03D5FFF7F2FDB9
:101F9000FFF78CFFF0BCBDE800882DE9C0489346F0
:101FA00030B491E8380007C810F0804F08BF13F034
:101FB000804F03D100F005F8FFF778FFF0BCBDE8D3
:101FC000008820F07F4780EA030023F07F4C07EB76
:101FD0000C03A3F57C5300F00040A3F1FE0392F044
:101FE000000F00F0B38095F0000F00F077802DE92E
:101FF00001494FEA11404FEA144621EA004800FB2C
:1020000006FC24EA064708FB06F607FB08F800FB77
:1020100007F718EB06484CEB164C4FEA124B18EB3F
:1020200007484FEA15464CEB174022EA0B4E0BFBD4
:1020300006FC25EA06470EFB06F607FB0EFE0BFB29
:1020400007F71EEB064E4CEB164C4FF000061EEB4E
:10205000074E4CEB174B18EB0B0840F1000018EB48
:102060000E0B58EB000840F100008F1A4FF00001F2
:102070003CBFC943661B14BFB5EB040C00213CBF39
:10208000C943F61B4FEA17444EEA8E0E27EA044571
:102090004FEA1C4704FB07622CEA074C05FB07F7D5
:1020A0000CFB05F604FB0CFC16EB074642EB174253
:1020B00016EB0C4642EB1C421BEB060658EB0202E9
:1020C000414146EA9E0601D5BDE80189B619524153
:1020D00041EB0101A3F10103BDE801894FEA144579
:1020E0004FEA114724EA054621EA074C05FB07F4AD
:1020F00006FB07F70CFB06F105FB0CFC11EB074197
:1021000044EB17444FEA124711EB0C4144EB1C44DB
:1021100022EA074C05FB07F206FB07F70CFB06F665
:1021200005FB0CFC16EB074642EB174216EB0C4680
:1021300042EB1C456A1854F1000148BF7047B619BC
:10214000524141EB0101A3F10103704795F0000FEB
:1021500037D04FEA11424FEA144721EA024624EAF7
:10216000074C02FB07F106FB07F70CFB06F402FB2A
:102170000CFC14EB074441EB17414FEA154714EBF5
:102180000C4441EB1C4125EA074C02FB07F506FB1A
:1021900007F70CFB06F602FB0CFC16EB074645EBBB
:1021A000174516EB0C4645EB1C42121951F1000184
:1021B00048BF7047B619524141EB0101A3F1010339
:1021C00070474FEA14454FEA114724EA054621EAD1
:1021D000074C05FB07F106FB07F70CFB06F24FF077
:1021E000000605FB0CFC12EB074241EB174112EB1A
:1021F0000C4251EB1C4148BF7047921841EB010162
:10220000A3F10103704710B5846AE16D11F0500F1E
:1022100006D0E16DC90625D5204600F0CFFF10BDE0
:10222000E06D40F40070E06520680168090716D58C
:1022300004F050FB78B12068C068800400280ADBF5
:10224000E06D20F48070E065E06DC00403D4E06DC3
:1022500040F00100E065204600F0AEFF10BDC06810
:102260008007EBE7616D496BBDE81040084710B58A
:10227000806AC16D41F04001C165016E41F0040109
:10228000016600F09BFF10BD10B5806A00F095FF5D
:1022900010BD000070B5044600688168C1F34005B8
:1022A00004F00CFB48B345BB2068816801F00D01C8
:1022B000012914D18168124A1140891C816021686A
:1022C0000320086001F0C4FE054612E001F0C0FEE4
:1022D000401B02280DD920688068C00709D0E06D36
:1022E00040F01000E065206E40F001002066012003
:1022F00070BD20688068C007E8D1002070BD000074
:10230000C0FFFF7FF8B5044600200090206804F06D
:10231000D5FAE8BB20688168214A11422ED1816834
:10232000D6433140491C81601E48806800F0E0704F
:1023300000020DD51C481D490068B0FBF1F0401C9F
:1023400000EB4000800000E0401E00900028FBD120
:1023500001F07EFE05461CE004F0B0FA20B92068CA
:1023600081683140491C816001F072FE401B0228E7
:102370000FD920680068C043C0070AD0E06D40F064
:102380001000E065206E40F0010020660120F8BDDD
:1023900004E020680168C943C907DDD10020F6E7E1
:1023A0003F0000800003005084000020400D030027
:1023B000FEE70020704700207047000010B50022A3
:1023C0000449054806F0E5FA0449034806F0D8FA3E
:1023D000002010BD681D00209814002068190020FE
:1023E00010B50146034806F0CBFA024806F090FA11
:1023F000002010BD9814002000207047014801F013
:10240000E1B800009C0D0020014801F0DBB800009D
:10241000640B0020014801F0D5B80000900E0020A8
:10242000014801F0CFB80000F00E00200D4902680D
:102430008A4201D20C4901E00B492031D2B2142367
:10244000083AB2FBF3F2436C02F01F0223F00303DD
:102450001944816404498031C164012191400165BE
:102460007047000008040240000802400179074A52
:1024700002EB81024265054A4432491E826501F041
:102480001F0201219140C16570470000FC08024015
:1024900030B5D0E913456560446D14B1D0E91645F7
:1024A000656090F8444004F01F050124AC40056CC1
:1024B0006C60046863608368102B036803D09960C4
:1024C0000068C26030BD9A600068C16030BD000025
:1024D000074808B5406800900146064802699142E5
:1024E00002D2C168491CC1600099016108BD0000A9
:1024F000001000E0300200200A4841680A4AD2ED8C
:10250000000A4268521AF8EE601A01EE102AB8EE7C
:10251000411A60EE211AB4EEE11AF1EE10FAF0D38E
:1025200070470000001000E03002002010B500F0FD
:102530003FF80B499FED0B1A08688A8800EB4003AF
:10254000C3EBC01002EBC00000EE100AC88800EE1A
:10255000900AB8EE400AF8EE600A00EE810A10BD5B
:10256000600200206F12833A0D490A6842F08072BF
:102570000A600C4900224A600B6843F001030B60BB
:1025800009494FF47A734843B0FBF3F30749C1E9B3
:102590000003054BB0FBF3F0C1E9020270470000F5
:1025A000FCED00E0001000E040420F00300200208F
:1025B0002DE9F843224840680090FFF789FF214C3D
:1025C00000270098E1684FF0FF323D46E1FB02052D
:1025D000C4E90E05D4F80080064642463B4629462B
:1025E000FDF79AFF0246A2FB083CC4E9060101FB85
:1025F00008C002FB0701F01A65EB0105C4E90805F4
:1026000004F130080646C8F80020D4F804900023EE
:102610004A462946FDF780FF81B2A8F8041001FB65
:1026200009F1701A65EB0705C4E90A05294600237C
:10263000A268FDF771FFA8F80600BDE8F883000066
:10264000001000E03002002010B504461020FDF715
:102650000DFF0021016041608160C160A168C1601F
:10266000218801B96421018061684160618801B9F4
:1026700064210181054A21880181034B117843F8C7
:102680002100491C117010BD882E00207503002008
:10269000018801817047704772B6FEE7014801F07A
:1026A000CAB90000C40B0020014801F0C4B9000001
:1026B000C40B0020002180F86A1200F5D07070472A
:1026C000FEB5054640F26F263046FDF7CFFE0446C4
:1026D0003146FEF797F9687D84F8D200687D652160
:1026E000001D84F8D300287D2071287D001D6071B5
:1026F0007320A071287DE0712A7D04F10900115436
:102700000A48C5E90304284600F0BCF820600848E0
:1027100007C88DE80700E88AADF800006846029413
:10272000FFF792FFC4F86B022046FEBD5327000856
:1027300084AA0008AFF3008010B5044690F869122F
:10274000D430FEF75FF9002084F8680284F869024B
:1027500010BD70B50546C46C90F83800012673288A
:1027600094F8680223D000284CD094F8690295F8B8
:10277000442094F8D330811899423ED804F1D40112
:10278000084405F13801FEF7BEF894F8690295F89F
:1027900044100844C0B284F8690294F8D310884207
:1027A00030D104F1D300085C65280BD025E0002867
:1027B000DBD195F8390094F8D210884222D184F800
:1027C0006862D2E704F1D60094F8D210054607F00B
:1027D000F7FA94F8D32004F1D201515C88420CD16D
:1027E00094F8D220294604F5D070FEF78CF884F8CE
:1027F0006A62D4F86B02FFF74BFF2046BDE87040D9
:10280000FFF79ABF70BD00002DE9FC471B4F8946BA
:102810000546A7F11806DFF8688027E06B46174ADF
:102820004946284601F07EF8002498F800103A68DE
:102830001AE056F824000368AB4214D1036C9A42A4
:1028400011D1816C00290CD0FA6880F8442056F828
:10285000240069463830FEF79BF856F82400816C56
:102860008847BDE8FC87641C8C42E2D34946284671
:1028700001F04CF80028D1D1F3E700004C2E0020E5
:1028800024020020F0B5354F054687B0387860B98E
:10289000334801F0E3FA00220121314800F096FFAD
:1028A000002208212E4800F091FF3A782D4C062A8C
:1028B00007D345232CA203213148009404F02AF8C1
:1028C000F7E700202F4E17E056F82010D5F808C083
:1028D0000B6C63450FD109682B6899420BD105F148
:1028E00008062D1D8DE870004C231FA2032126A091
:1028F00004F010F8F6E7401C9042E5D35020FDF7B5
:10290000B5FD04465021FEF79FF86868606000201E
:102910000821A060C4E903016061A061E061206258
:102920006062296821606968A162A9682164E96818
:10293000A1642969E16401210090CDE902010190BF
:10294000049005906946206800F0B0FF387846F89A
:102950002040401C387007B02046F0BD2402002003
:10296000C40B002034AA00082E2E5C4253505C6336
:10297000616E5C6273705F63616E2E6300000000C5
:10298000DCAC0008342E00205B7D6273705F6361F5
:102990006E5D2043414E206964206372617368203C
:1029A0002C7478205B25645D206F72207278205B28
:1029B00025645D20616C7265616479207265676968
:1029C0007374657265640000104810B502680021D8
:1029D000D16302689163006841630C4803F0DAFA3E
:1029E00004210A4803F0D6FA0821084803F0D2FA75
:1029F0000021064802F0C0FF0421044802F0BCFF99
:102A0000BDE810400821014802F0B6BF040D0020C7
:102A1000134810B5026840F63401D163026891632F
:102A20000068416300210E4803F0B4FA04210C4809
:102A300003F0B0FA08210A4803F0ACFA0C21084868
:102A400003F0A8FA0021064802F096FF042104488A
:102A500002F092FFBDE810400821014802F08CBF4F
:102A6000040D002070B500227D23274E18E084421B
:102A700014D383EA0205EC0703EB02044FEA540483
:102A800000D0641C36F81440844207D21344EC078B
:102A90004FEA530300D05B1CDBB201E01A4452083A
:102AA0009C1A012C36F81240E1DC844203D1143A1E
:102AB00002EB820006E036F81350854204D1143B45
:102AC00003EB8300400014E0AC42F0D0201A00EB8E
:102AD000C00303EB0010052303EB80000A2390FBE7
:102AE000F3F0631B90FBF3F0143A02EB820200EB6D
:102AF000420000EE100AF2EE040AB8EEC00A80EEC0
:102B0000201A81ED001A70BDBEAA0008F8B5002594
:102B10000446009590F858000E4601280BD001207D
:102B200084F858002046FFF7B5FB0200E06D04D0A2
:102B300040F010002AE00220F8BD20F4885040F058
:102B40000200E06520688168134B194006F080435D
:102B5000194341F000418160104B20680EE000995C
:102B6000491C0091994209D3E06D20F0020040F029
:102B70001000E06584F858500120F8BD8168C90F45
:102B8000EDD1E06D20F0020040F00100E06584F836
:102B900058501046F8BD0000C0FFFF3F02DE0400A1
:102BA0002DE9F04104464548806800F01F05206883
:102BB00003F080FE08BB2068C168C06C01F00041D2
:102BC00000F4C070084312D094F85800012814D0C3
:102BD000012084F858002046FFF794FB01004FF0D5
:102BE00000070CD084F858700846BDE8F081E06D0D
:102BF00040F02000E0650120F7E70220F5E7E06DF6
:102C0000C00504D5206E20F00800206600E027668D
:102C1000E06D42F20102904340F48050E065284BA1
:102C200020684FF0A046984201D1324600E00246AB
:102C3000824200D01DB9E26D22F48012E26560226A
:102C4000026084F858702068C268920203D5426816
:102C500042F480624260A06908282068426807D078
:102C600022F0400242602068426842F0200206E002
:102C700022F0200242602068426842F04002426036
:102C80002068984201D1324600E00246824209D0D3
:102C900045B1062D06D0072D04D0E06D40F480101C
:102CA000E065A1E7C26812F0007F9DD18268054B04
:102CB0001A4042F00802826096E7000000030050CC
:102CC00000010050C0FFFF7F2DE9F047044690F857
:102CD00058009CB00D464FF00009012822D0012079
:102CE00084F8580000261796189620684FF0A048E0
:102CF000404519D1274F0097384603F0E7FD82463B
:102D0000206803F0E3FD50EA0A0115D0E06D40F0C1
:102D10002000E0654FF0010984F8586048461CB077
:102D2000BDE8F0870220FAE7E06D40F02000E065A2
:102D300084F858600120F2E71748296840F61F72AE
:102D40000029816821F4604116D094F8383041EAB6
:102D500043316B6819438160D8F80810BB68C1F330
:102D60000001C3F300031943D6D1AB6829681943A6
:102D70008368934319430BE08160D8F80810BB685F
:102D8000C1F30001C3F300031943C5D18168914326
:102D90008160C1E700010050000300502DE9F84FA9
:102DA00000270446009790F85800DFF8D8930D46A6
:102DB000B846012810D0012684F85860206803F036
:102DC00081FD58B1E06D40F02000E065012784F8F6
:102DD00058803846BDE8F88F0220FBE7D5E900218E
:102DE0000C23206803EA91131844036B01F01F01C0
:102DF0004FF01F0C0CFA01FCC2F3846223EA0C03AF
:102E00008A4013430363206803F05CFD8246206818
:102E100003F04CFD5AEA00013CD1AA6829682068F9
:102E2000B2F1004F37D003F05DFD2068416921F019
:102E30000041416120686A69C168C1F3C10149006C
:102E40008A402969042931D000EB81002B68016E8A
:102E5000DFF834C303F0F84301EA0C0113431943CC
:102E600041F00041016622682869A96902EB8000EF
:102E7000026E22F080720A430266297F2268286966
:102E8000012910D0002102EB8000026E22F00072B6
:102E90000A4302667DE0002203F024FD20684169B8
:102EA00041F00041C5E74FF00071ECE7002103F06D
:102EB000F7FC400320684FF0000171D003F0F0FCF4
:102EC00090FAA0F0B0FA80F1286842036DD090FA31
:102ED000A0F0B0FA80F0814204D1002211462068AF
:102EE00003F00FFD0121206803F0DAFC40032068A5
:102EF0004FF001015CD003F0D3FC90FAA0F0B0FADF
:102F000080F12868420358D090FAA0F0B0FA80F01F
:102F1000814204D100220121206803F0F2FC022149
:102F2000206803F0BDFC400320684FF0020147D049
:102F300003F0B6FC90FAA0F0B0FA80F128684203E2
:102F400043D090FAA0F0B0FA80F0814204D1002280
:102F50000221206803F0D5FC0321206803F0A0FCC7
:102F6000400320684FF0030132D003F099FC90FA3F
:102F7000A0F0B0FA80F1286842032ED090FAA0F0B9
:102F8000B0FA80F0814204D100220321206803F0CE
:102F9000B8FC206803F092FC10B3AAE000E004E063
:102FA00003F07EFCC0F384618EE7C0F3846092E797
:102FB00003F076FCC0F38461A3E7C0F38460A7E765
:102FC00003F06EFCC0F38461B8E7C0F38460BCE733
:102FD00003F066FCC0F38461CDE7C0F38460D1E701
:102FE00021682A7B286851F8B03FC0F3120C23EA0D
:102FF0000C0302F0180C654A22FA0CF2024013434B
:103000000B60E968494574D1286841031AD090FAE9
:10301000A0F1B1FA81F1491C01F01F0109294FEA21
:10302000403130D8002910D090FAA0F1B1FA81F1E6
:1030300001F1010101F01F0106FA01F608D1C0F308
:10304000846109E0C0F38461E5E7C0F38461EFE7E0
:1030500090FAA0F1B1FA81F101F1010101F01F0133
:1030600046EA816102D1C0F3846003E090FAA0F0E7
:10307000B0FA80F000F1010000F01F0000EB40000A
:1030800041EA005131E000290DD090FAA0F1B1FAE7
:1030900081F101F1010101F01F0106FA01F605D1EC
:1030A000C0F3846106E0C0F38461F2E790FAA0F116
:1030B000B1FA81F101F1010101F01F0146EA8161DC
:1030C00002D1C0F3846003E090FAA0F0B0FA80F07F
:1030D00000F1010000F01F002D4A00EB400002EB60
:1030E000005041EA000141F00071AA68206803F035
:1030F000F9FB2848296801423FF469AE264A9068E6
:10310000264B00F0E070994202D0254B99421CD129
:1031100003021AD42168B1F1A04F7FF458AE916830
:1031200040F4000021F0E071014391601D481E4908
:103130000068B0FBF1F0401C00EB4000800000E0B4
:10314000401E00900028FBD141E6184D184BA942C3
:1031500007D1C50105D421689942F5D040F08070AF
:1031600009E0144DA942EFD14102EDD42168994202
:10317000EAD040F48000916821F0E0710143916051
:1031800025E6000000007F4000F0FF03FFFF07007E
:10319000000020FE0000088000030050000021C352
:1031A0001000C09084000020400D0300000052C7B2
:1031B00000010050000084CB70477047704700004A
:1031C000F8B54FF0000504002E46009502D0E06DE2
:1031D00010B107E00120F8BD204600F0EBF82666AC
:1031E00084F8586020688168C1F3407119B1816822
:1031F000684A1140816020688168C1F3007189B913
:103200008168654A114041F080518160634864499A
:103210000068B0FBF1F04000801C00E0401E009010
:103220000028FBD120688168C1F3007141B9E16DCC
:1032300041F01001E165216E41F001012166012597
:1032400003F040FB0646E06D00F01001E06D3143F5
:1032500005D040F01000E06501252846F8BD20F4B7
:10326000807040F00200E065206803F027FB88B919
:103270004FF0A04080684B49C0F300008968C1F35B
:103280000001084306D1484960688A6822F47C122C
:1032900002438A60E168E06B627F0843A16841EA0B
:1032A0004231084394F8241040EA0140012904D136
:1032B000218D3E4A02EB41410843E16A29B101F404
:1032C0007871226B014342EA01002168CA68384BD9
:1032D0001A400243CA6020680169626B21F04061B4
:1032E00011430161206803F0E1FA06432ED1207FEB
:1032F00094F83810800340EA41012068C26844F223
:1033000002039A430A43C2602069002820680169C9
:103310000AD041F480310161206850F8C01F226951
:103320006FF30D01114307E021F480310161206842
:1033300050F8C01F6FF30D01016094F840000128A0
:103340000CD02068016921F0010101616069012848
:103350002068016B21F00F0110D012E0D4E91110A8
:103360000143D4E91302104301432068026940F28B
:10337000FC739A43114341F00101E6E7226A521EB1
:1033800011430163E06D20F0020040F00100E065B0
:1033900063E70000C0FFFF5FC0FFFF7F84000020E5
:1033A000400D030000010050000300500000FEFF2C
:1033B0000740F0FF2DE9F04198B00546142111A80F
:1033C000FDF742FB44216846FDF73EFB4FF4004108
:1033D00028688A03394E0327394C4FF00008B0F1B2
:1033E000A04F10D0374B984232D10F9268460091CF
:1033F00001F060FC08B1FFF74FF93068401C306005
:10340000012828D02FE00F926846009101F052FC6D
:1034100008B1FFF741F93068401C3060012807D13E
:10342000E06C40F40050E064E06C00F40050169052
:10343000E06C40F00100E064E06C11A900F00100D4
:1034400016900F2081E881014FF0904000F022FD9E
:1034500018B0BDE8F081E06C40F40050E064E06C2E
:1034600000F400501690E06C40F00200E064E06C64
:10347000CDF84C8000F0020016900420CDE9110731
:10348000464611A9104800F005FD114C0F48206078
:103490002420C4E901068020C4E903604000606183
:1034A0008000C4E9060680002062204600F0E8F8AB
:1034B00008B1FFF7F1F86C65A562C9E70C000020C0
:1034C0000010024000010050000400481C000240AF
:1034D000640B00202DE9F041044634481746884625
:1034E000806800F01F05206803F0ECF900285AD12D
:1034F00094F85800012856D0012084F8580000267E
:1035000025B1052D02D0092D00D003E02046FEF79D
:10351000F9FE18B184F85860BDE8F081E06D40F61E
:103520000161884340F48070E06521492068884249
:1035300002D14FF0A04100E00146814200D01DB908
:10354000E06D20F48010E065E06DC00404D5206ECD
:1035500020F00600206600E02666616D1548C8620E
:10356000616D15480863616D1448486321681C202B
:10357000086084F858602068416841F0100141609B
:103580002068C16841F00101C16021683B464246A4
:103590004031606D00F0D4F821688A68084B1A4009
:1035A000121D8A60B8E70220B6E700000003005051
:1035B0000001005007220008892200086F2200083D
:1035C000C0FFFF7FF0B4016C0B6801680A6890F8D7
:1035D0004440042504F01F0405FA04F61E4211D0ED
:1035E00056070FD50A68920603D40A6822F004022F
:1035F0000A6090F8441001F01F018D40016C4D608D
:10360000016B1DE0022606FA04F71F424FF0000C82
:103610004FF0010518D0970716D50A68920605D411
:103620000A6822F00A020A6080F8255090F84410D7
:1036300001F01F018E40016C4E6080F824C0C16A09
:1036400000291AD0F0BC08470826A6401E4214D014
:10365000120712D50A6822F00E020A6090F8441090
:10366000026C01F01F0105FA01F15160C56380F899
:10367000255080F824C0416BE2E7F0BC70470000A1
:1036800070B504000CD02B4A20681421904209D256
:10369000294A0244B2FBF1F18900616427490AE03A
:1036A000012070BD234A52420244B2FBF1F189006D
:1036B0006164204908392164022184F825100168D9
:1036C00047F6F0729143D4E902231A43D4E9043552
:1036D0002B431A43A3691A43E3691A43236A1A4323
:1036E0000A4302602046FEF7A1FEA0680025B0F55F
:1036F000804F00D16560A16C20790860D4E9130186
:1037000041606068401E032808D82046FEF7AEFEE0
:10371000606D0560D4E91601416002E06565A5654C
:10372000E565E563012084F8250084F82450002035
:1037300070BD000008040240F8FFFDBF0000024019
:1037400070B5044690F82400002501280CD0012013
:1037500084F8240094F825600020012E06D084F817
:1037600024000225284670BD022070BD022684F880
:103770002560E0632068066826F0010606602046A2
:10378000FEF786FE206B00282068016802D041F019
:103790000E0106E021F0040101602068016841F09B
:1037A0000A010160A06C0168C90303D5016841F4F6
:1037B00080710160606D18B1016841F48071016031
:1037C0002068016841F001010160CBE730B590F855
:1037D0005C30012B07D0022B05D0016E41F00201B5
:1037E0000166012030BD0468A36D4D0701D0DD07DF
:1037F0001DD011F0380F01D09D0718D511F4E07FCE
:1038000001D05D0713D511F4F05F01D01D070ED56F
:1038100011F4604F01D0DD0609D511F4403F01D00D
:103820009D0604D511F47C0F05D05D0603D4E56D2B
:1038300045F00105E5654C0701D0DC071DD111F00D
:10384000380F01D09C0718D411F4E07F01D05C0739
:1038500013D411F4F05F01D01C070ED411F4604FA3
:1038600001D0DC0609D411F4403F01D09C0604D4F9
:1038700011F47C0F06D05B0604D50368DC6D44F0C0
:103880000204DC650B0604D5036853F8DC4F1443CF
:103890001C60CB0504D5036853F8E04F14431C604B
:1038A0000068426D0A434265002030BD10B590F8B3
:1038B0005C20012A07D0022A05D0016E41F00201E6
:1038C0000166012010BD0A687AB10B7B0A690C7A87
:1038D00042EA43734A69406C496842EA847200EBE9
:1038E000C100C0E90032002010BD0B7A4A690C8A81
:1038F00042EA83720B7B006CDB06496843EA0443AF
:103900001A4340F82120EEE77047704700684029CD
:1039100004D0D0F8980000F00F007047D0F8900065
:10392000F9E70000F0B590F85C500024022D03D0B8
:10393000016E41F0080160E00568402946D0D5F8E5
:103940009860360756D0D5F89860F60104D5D5F8BA
:103950008060F60500D50124D5F89850C5F30125FF
:103960002E19C46C06EBC60504EBC5052C6814F0D3
:10397000804454602C6843D024F0604414602C6868
:103980002B4F04F00054946010CD04F000441461F7
:1039900035F8044BA4B2D46155F8044CC4F3034485
:1039A000D46055F8044C04F48014546155F8044C68
:1039B00004F40014946155F8044CC4F306641462D2
:1039C00055F8044CE40F5462002421E0D5F89060CF
:1039D00036070FD0D5F89060F60104D5D5F8806091
:1039E000B60500D50124D5F89050C5F301252E1950
:1039F000846CB7E7016E41F4807101660120F0BD6F
:103A0000C4F38A44BAE715F804C003F804C0641C80
:103A1000D2F80CC017F80CC0A445F4D800684029AF
:103A200003D0C0F89C600020F0BDC0F89460FAE7B5
:103A3000CCA9000870472DE9F05F04460068016DCD
:103A4000426D01F4E05102EA0108016D426D01F09E
:103A5000070102EA0109016D426D01F0380102EA35
:103A6000010A016D476D01F471010F40016D426D56
:103A700001F46021456D02EA010B016DCE43710630
:103A800007D4E943490604D4402101652046FFF7E5
:103A9000D1FFF0050ED4E843C0050BD42068D0F860
:103AA000D820D0F8E01011404FF480720265204613
:103AB00000F0ECF9B8F1000005D021680865414636
:103AC000204600F0E5F9B9F1000005D0216808654D
:103AD0004946204600F0B6F9BAF1000005D0216849
:103AE00008655146204600F0B3F9B00509D4E84313
:103AF000800506D421684FF400700865204600F068
:103B0000C8F930060DD4E84300060AD42068D0F87E
:103B1000D420D0F8DC10114080220265204600F04D
:103B2000B6F9B00409D4E843800406D421684FF400
:103B300000500865204600F0A8F9300409D4E84395
:103B4000000406D421684FF400400865204600F0C8
:103B50009BF970040AD4E843400407D421684FF469
:103B600080400865206E40F080002066BBF10000B8
:103B700005D02168086559462046FFF7C6FE27B1E3
:103B800020680765206E38432066206E002802D02A
:103B90002046FFF7B9FEBDE8F09F00002DE9F04197
:103BA000040006D0DFF8E88194F85C00002518B125
:103BB00007E00120BDE8F08184F85D50204600F068
:103BC000EFF82068816921F01001816100F040FA6E
:103BD0000646032704E000F03BFA801B0A2811D8B0
:103BE000206880690007F6D42068816941F00101EE
:103BF000816100F02DFA06460BE000F029FA801BE7
:103C00000A2806D9206E40F00100206684F85C7016
:103C1000CFE720688069C007EFD02068816941F054
:103C2000020181612168414502D15A4960680860FA
:103C3000207C01282068816937D041F040018161F2
:103C4000607C01282068816932D021F48041816143
:103C5000A07C0128206881692DD041F480518161C8
:103C600020688169A26821F4407111438161206854
:103C7000816921F0A40181612068016921F01001AE
:103C80000161E068012819D010B302281BD0206818
:103C9000816941F0800181612068016941F0100172
:103CA0000161E06803280ED012E021F04001C6E770
:103CB00041F48041CBE721F48051D0E7206881694D
:103CC00041F0040103E02068816941F02001816135
:103CD000207EE16940066FF0FF0202EB0121A0F1B6
:103CE00000700843216AA38A491E0843110201EBB0
:103CF000034318432368D861A068B0F5407F10D112
:103D0000D4E90A0302EB0322401E1043226B0B137B
:103D100003EB02121043A28C01EB0241084321681D
:103D2000C860206850F8C01FE26B114301601A4858
:103D30002064226852F8801FA38E21F4F81141EA12
:103D400003411160144970316164226852F8801F88
:103D500094F8383021F0706141EA036111600E4936
:103D6000B031A1640D49E1640C49D83121650B499A
:103D7000F031616500F5547100E020C08842FCD349
:103D8000A5652566012084F85C00002012E700008C
:103D9000006400400065004000A4004088A5004089
:103DA00010B598B00446142111A8FCF74DFE44212B
:103DB0006846FCF749FE20492068884239D18014C2
:103DC000009040030C90684600F074FF08B1FEF7C5
:103DD00063FC1A48816D41F000718165816D01F0CD
:103DE00000711691C16C41F00201C164C06C11A94F
:103DF00000F0020016904FF44070119002201290D3
:103E00000020139003201490092015900C4800F016
:103E100041F800220521152000F0A8F9152000F036
:103E200097F900220521162000F0A0F9162000F0D5
:103E30008FF918B010BD000000640040001002406F
:103E400000040048C90702D04021FEF7DDBC7047DE
:103E5000090702D54121FEF7D7BC704790F85C10E6
:103E6000012905D0016E41F004010166012070476F
:103E7000022180F85C1001688A6922F001028A61DF
:103E800000210166084670477047704770477047C9
:103E9000704770472DE9F84FDFF888910022A9F1AB
:103EA000040B03274FF00F0C09F1040AABF1040EC9
:103EB000B1E0012595402B4073D00C7904F0030448
:103EC000012C01D0022C15D18668540007FA04F8A1
:103ED00026EA0806D1F80C8008FA04F848EA060831
:103EE000C0F808804468AC430D79C5F300159540CF
:103EF000254345600C79E443A40708D0C568540005
:103F000007FA04F6B5438E68A6402E43C6600C79C6
:103F100004F00304022C11D1D40800EB8406356AA6
:103F20005407E40E0CFA04F825EA0805D1F81080CD
:103F300008FA04F848EA0508C6F820800568540025
:103F400007FA04F6B5430E7906F00306A6402E43A1
:103F500006604C6814F4403F5CD0334C256E45F04D
:103F600001052566246E22F0030504F00104009487
:103F70002E4C05EB0408D8F808509407260F0CFACD
:103F800006F4A543B0F1904F04D0294CA04203D1D0
:103F9000012417E0002415E0264CA04202D102249F
:103FA00010E037E0244CA04201D103240AE0234C66
:103FB000A04201D1042405E0214CA04201D10524F6
:103FC00000E00624B4402C43C8F80840D9F800406B
:103FD0004D464E689C43F60200D51C432C60DAF82F
:103FE000004055464E689C43B60200D51C432C60E9
:103FF000DBF800405D464E689C43B60300D51C4389
:104000002C60DEF8004075464E689C43F60300D5F0
:104010001C432C60521C0B6833FA02F47FF449AF46
:10402000BDE8F88F08040140001002400000014084
:104030000004004800080048000C00480010004838
:10404000001400480AB18161704781627047000026
:1040500001488068704700007800002002488168AD
:1040600042681144816070477800002010B5002438
:10407000032000F09BF80F2000F008F808B101249D
:1040800001E000F047F8204610BD000030B50546BD
:104090001B4887B0016E41F480210166006E05A9BE
:1040A00000F480200690684601F040F801F070F8B6
:1040B0001449154AB0FBF1F11448491E02604160F1
:1040C00040F2E7320021C0E90321816001F0B3FC36
:1040D000040012D10D4801F0E1FC04000DD11A20BA
:1040E00000F036F8102D07D2002229461A2000F0E1
:1040F0003DF80748056000E0012407B0204630BDC8
:104100000010024040420F0000480140500F0020C4
:10411000780000200D4808B5016E41F001010166EC
:10412000016E01F001010091816D41F080518165C6
:10413000806D002200F0805000900F21901E00F052
:1041400015F8BDE8084000F0ADBD000000100240C9
:10415000002809DB00F01F02012191404009800086
:1041600000F1E020C0F8001170470000F0B40E4BE1
:104170001B68C3F30223C3F10704042C00D90424F1
:104180001D1D072D01D2002300E0DB1E012606FACB
:1041900004F56D1E0D409D409E40761E164045EA7A
:1041A0000601F0BC05F0B6BD0CED00E0064A00F0DB
:1041B000070110684FF6FF03184040EA0120034949
:1041C00008431060704700000CED00E00000FA05A5
:1041D00001220168C0F8D022002280F8C82231F8FC
:1041E000540F40F001000880088840F00200088069
:1041F0001046704770B50F4D044669B101290AD1C8
:10420000D4F8D80204F0DFFE607A002803D02868D2
:1042100040F00600286070BD607A28B103F04EFAC5
:10422000286820F006002860D4F8D802BDE8704065
:1042300004F061BE10ED00E010B50C0607D501F0EA
:10424000070101EB810100EBC100103005E001EB3B
:10425000810100EBC10000F5A87099B232B10122D2
:1042600002730181190C4181002010BD00220273EC
:10427000C180F9E701EB810200EBC202D0F8D8025D
:10428000526A04F017BD01EB810200EBC202D0F8C4
:10429000D802D2F8642104F061BD70B504460B0663
:1042A00001F0070000EB800104EBC1014FF00102B7
:1042B0004FF0000502D54A74103103E081F85151E6
:1042C00001F5A871087094F89002012808D084F8CC
:1042D0009022206805F020FA84F89052002070BDEA
:1042E000022070BD70B5044601F00F0022799042A3
:1042F00001D9012070BD0B0601F0070000EB800121
:1043000004EBC1014FF001024FF0000502D54A74E1
:10431000103103E081F8515101F5A8718D700870DA
:1043200094F89002012808D084F89022206805F0C3
:1043300093FA84F89052002070BD022070BD2DE9E0
:10434000F04704685FEA42480B788D69B4F8508002
:104350004FF0000C4BF68F7648F2800748F68F79C5
:1043600048F2C00A444428D540F2024808EBC3088A
:1043700034F80840C4F30904A54203D32D1B8D6112
:1043800002D00BE0C1F818C0056835F823C00CEA6C
:10439000060C8CF400563E4325F82360520609D5DE
:1043A0000B78026832F8235005EA090545EA0A0548
:1043B00022F8235074B30A8927E040F2064808EB3C
:1043C000C30834F80840C4F30904A54203D32D1BE5
:1043D0008D6102D00BE0C1F818C0056835F823C024
:1043E0000CEA060C8CF400563E4325F82360520676
:1043F00009D40B78026832F8235005EA090545EA2A
:104400000A0522F823502CB14A89496900682346DD
:1044100005F03BFC2046BDE8F0872DE9F05F05463E
:1044200000680C465FEA4268D1F818C01646097861
:10443000B0F8508048F6BF7A48F2800B48F68F7784
:104440004CF280094FF6FF724FF4004E4FF000031C
:1044500040447DD540F2024808EBC10830F808001E
:10446000C0F30900844514D9BCEB000CC4F818C093
:1044700010D0760408D52E6836F821C00CEA070C57
:104480004CEA090C26F821C094F82410012963D0C5
:104490007CE1A361607810B1012813D01AE028688C
:1044A000B0F85020104400EBC100B0F80214C1F382
:1044B0000901A0F80214B0F8021441F40041A0F878
:1044C000021407E02868B0F85020104400EBC10047
:1044D000A0F802346178286811B1012913D01AE0DC
:1044E000B0F850100844217800EBC100B0F8061471
:1044F000C1F30901A0F80614B0F8061441F4004114
:10450000A0F8061407E0B0F850100844217800EB3A
:10451000C100A0F80634E07802280BD12078296881
:1045200031F8202002EA0A0282F0200242EA0B025D
:1045300021F8202021782846FFF79CFE70040AD538
:104540002178286830F821203A4042EA090200E048
:1045500051E020F82120C5E0616901446161E16911
:104560000144E1612669216AB14203D33046091A48
:10457000216204E084F8243009B10846236261789E
:1045800011B101292BD033E02968B1F8503019441A
:10459000237801EBC301B1F80234C3F30903A1F896
:1045A000023401F2024158B13E280ED84308C60732
:1045B00000D05B1C0E8802EA832216430E8017E0AF
:1045C0000A8842F400420A8012E04209C30600D180
:1045D000521E0B884EEA822213430B8008E02968A2
:1045E000B1F850201144227801EBC201A1F8020475
:1045F00083B22289C6E040F2064808EBC10830F8D1
:104600000800C0F30900844514D3BCEB000CC4F8C7
:1046100018C010D0760408D42E6836F821C00CEAF1
:10462000070C4CEA090C26F821C094F82410012943
:104630005BD0ABE0A361607810B1012813D01AE021
:104640002868B0F85020104400EBC100B0F8021404
:10465000C1F30901A0F80214B0F8021441F40041BA
:10466000A0F8021407E02868B0F85020104400EBCE
:10467000C100A0F802346178286811B1012913D073
:104680001AE0B0F850100844217800EBC100B0F8EF
:104690000614C1F30901A0F80614B0F8061441F499
:1046A0000041A0F8061407E0B0F850100844217843
:1046B00000EBC100A0F80634E07802280BD1217885
:1046C000286830F8212002EA0A0282F0200242EA39
:1046D0000B0220F8212021782846FFF7CBFD70043B
:1046E0007FF52EAF0020BDE8F09F61690144616154
:1046F000E1690144E1612669216AB14203D3304690
:10470000091A216204E009B10846236284F82430C2
:104710006378296813B1012B2AD031E0B1F8503009
:104720001944237801EBC301B1F80634C3F309033C
:10473000A1F8063401F2064158B13E280ED84308CC
:10474000C60700D05B1C0E8802EA832216430E8047
:1047500016E00A8842F400420A8011E04209C306CA
:1047600000D1521E0B884EEA822213430B8007E0D1
:10477000B1F850201144227801EBC201A1F80604DF
:10478000628983B26169286805F099FA20782968FE
:1047900031F8202002EA0A0282F0300242EA0B02DB
:1047A00021F820209EE701F0070101EB810100EBD9
:1047B000C100D0F86C0170472DE9F04104460E06A7
:1047C00001F0070000EB800104EBC1014FF001078D
:1047D0004FF0000502D54F74103103E081F85151BC
:1047E00001F5A871022B0870C2F30A000861CB70B2
:1047F00000D10D7194F89002012809D084F89072CC
:10480000206804F0DFFD284684F89052BDE8F0816E
:104810000220FBE710B501F0070404EB840100EB74
:10482000C101C1E959230022C1F86C2181F851214D
:1048300081F85041006801F5A87105F05EF800208C
:1048400010BD70B5044601F007002279904201D9ED
:10485000012070BD0B064FF000054FF0010206D598
:1048600000EB800104EBC1014A74103107E001EB59
:10487000810104EBC10181F8515101F5A8718A70E1
:10488000087094F89002012808D084F890222068DB
:1048900005F01AF884F89052002070BD022070BD17
:1048A00010B501F0070404EB840100EBC101C1E97C
:1048B0000923012281F834200B630023CB624A7460
:1048C00001F8104F006805F018F8002010BD10B571
:1048D0000446006805F0D6F9010404D52046BDE879
:1048E000104002F0C2BB41050ED5206830F8441FCD
:1048F00021F480610180204600F008F92046BDE8DF
:104900001040002100F02EB9410405D5206830F890
:10491000441F21F480417DE0810405D5206830F8F2
:10492000441F21F4005175E0C1041FD5206830F800
:10493000401F21F004010180206830F8401F21F061
:104940000801018094F8C802012806D1002084F8EB
:10495000C80201462046FFF74DFC204600F0EAF869
:10496000206830F8441F21F4805153E0010512D52E
:10497000206830F8401F41F008010180206830F8BD
:10498000441F21F400610180206830F8401F41F08D
:10499000040101800AE0010629D5206830F8441F8F
:1049A00021F08001018094F8C80218B1204600F07F
:1049B00009F910BD206830F8401F41F00401018062
:1049C000206830F8401F41F008010180012084F880
:1049D000C8022068B0F854003C2101EA9000C4F8F5
:1049E000CC022046BDE810400121FFF703BC810541
:1049F00009D5206830F8441F21F400710180204659
:104A000000F0ACF810BDC005FCD5206830F8441F9C
:104A100021F48071018010BD70B5040004D094F8B9
:104A20009102002510B106E0012070BD84F890527B
:104A3000204600F03FF8032084F89102206804F03B
:104A400003FF002101260BE001EB810004EBC00015
:104A500046740174C57405624562491CC9B2856219
:104A600020798842F0D8002111E001EB810004EBAD
:104A7000C00080F8515180F8501180F85351C0F8AF
:104A80006051C0F86451491CC9B2C0F8685120791E
:104A90008842EAD894E8070004F0CDFE257384F834
:104AA0009162A07A012802D12046FFF791FB0020F5
:104AB00070BD000010B592B0044644216846FBF773
:104AC000C3FF1049206888421AD14014009000208A
:104AD0000D90684600F0EEF808B1FDF7DDFD0A48DC
:104AE000816D41F400018165806D002200F40000B9
:104AF000119005211420FFF739FB1420FFF728FB44
:104B000012B010BD005C00400010024070B50446B9
:104B100040790125022801D0FDF7BEFD2946D4F8D1
:104B2000D80204F002FAD4F8D802BDE8704004F0CC
:104B3000B5B9000010B50446407A30B106480168A6
:104B400021F00601016002F0B9FDD4F8D802BDE8F9
:104B5000104004F0D0B9000010ED00E0D0F8D80209
:104B600004F0D3B910B5044690F8900201280AD099
:104B7000012084F890022173206805F09AF8002043
:104B800084F8900210BD022010BDD0F8D82200F5A4
:104B90002671104604F0D5B910B5044690F890027D
:104BA00001280CD0012084F89002206805F05AF802
:104BB000206804F039FE002084F8900210BD022025
:104BC00010BD000010B50446D0F8D80204F0FBF97F
:104BD000607A002804D00348016841F006010160B2
:104BE00010BD000010ED00E02B492C4B0A6832216B
:104BF0004A432B4940B1B0F5007F086829D020F422
:104C0000C06040F480602CE00868C0F341200228B6
:104C100004D051F8800F20F4807022E0D1F8800099
:104C200020F48070C1F88000086820F4C06040F46F
:104C300000700860B2FBF3F0401C00E0401E4A69BF
:104C4000520501D50028F9D1486940050AD503204D
:104C50007047C0F34120022806D051F8800F40F47D
:104C60008070086000207047D1F8800040F48070A8
:104C7000C1F88000086820F4C06040F4007008604B
:104C8000B2FBF3F0401C00E0401E4A695205DBD540
:104C90000028F9D1D8E700008400002040420F002E
:104CA000007000400248816841F480418160704793
:104CB000007000402DE9F84F044600260068A24D20
:104CC000374600035CD5A86D4FF00009C00009D439
:104CD000A86D40F08050A865A86D4FF0010900F064
:104CE00080500090DFF864A2DAF8001041F480717F
:104CF000CAF80010FFF7ACF9804607E0FFF7A8F903
:104D0000A0EB0800022801D9032631E0DAF8000000
:104D1000C005F3D566BBD5F8900010F4407014D0F0
:104D2000216C814211D0D5F89000D5F8901020F474
:104D3000407041F48031C5F89010D5F8901021F4FE
:104D40008031C5F89010C5F89000C0074ED0FFF72D
:104D50007FF9804641F2883A05E0FFF779F9A0EB48
:104D600008015145D0D8D5F890008007F5D5EEB3AD
:104D70003746B9F1000F03D0A86D20F08050A86528
:104D80002078C00707D0D5F88800616820F00300BC
:104D90000843C5F888002078800707D5D5F8880033
:104DA000A16820F00C000843C5F88800207840076F
:104DB00007D5D5F88800E16820F030000843C5F831
:104DC00088002078000707D5D5F88800216920F0F1
:104DD000C0000843C5F888002078800609D5D5F8BA
:104DE0008800616920F44060084300E03DE0C5F8B8
:104DF00088002078400607D5D5F88800A16920F4FE
:104E000040500843C5F888002078000607D5D5F83B
:104E10008800E16920F440400843C5F888002088F4
:104E2000C00507D5D5F88800216A20F44030084332
:104E3000C5F888002088800507D5D5F88800616A04
:104E400020F440200843C5F888002088400519D583
:104E5000D5F88800A16A20F440100843C5F88800FE
:104E6000A06AB0F5801F09D00CE0D5F89000216C45
:104E700020F440700843C5F890007AE7E86840F4F1
:104E80008010E860208800050FD5D5F88800E16A19
:104E900020F440000843C5F88800E06AB0F5800FB0
:104EA00003D1E86840F48010E8602088C0040FD582
:104EB000D5F88800216B20F040700843C5F88800C1
:104EC000206BB0F1807F03D1E86840F48010E86087
:104ED000208881044FF000600ED5D5F88810626BF1
:104EE00021F040611143C5F88810616B814203D104
:104EF000E96841F48011E960218849040ED5D5F8AC
:104F00008810A26B21F040611143C5F88810A16B95
:104F1000814203D1E86840F48010E86020880004F2
:104F20000FD5D5F88800E16B20F040500843C5F854
:104F30008800E06BB0F1805F03D1E86840F4803016
:104F4000E8603846BDE8F88F00100240007000406D
:104F50002DE9F0470D4604004FF0000725D0DFF89B
:104F6000AC91D9F8000000F00F00A8420CD2D9F89B
:104F7000001021F00F012943C9F80010D9F80000F2
:104F800000F00F00A84210D12168614EC80741F21D
:104F9000883A58D06068DFF87C81032808D002285E
:104FA00030682CD0400500282BDB0120BDE8F087BD
:104FB00030688001F9D5F06800F00302F068C0F3B2
:104FC0000310401C032A18D0534AB2FBF0F0F268D9
:104FD000C2F306225043F268C2F34162521C5200EF
:104FE000B0FBF2F0404517D9B06810F0F00F0CD0CC
:104FF000880711D5A06840B10EE0484AE5E7800374
:10500000D1E700F0D7F8404506D9B06820F0F000AD
:1050100040F08000B0608027B068616820F0030035
:105020000843B060FFF714F8804605E0FFF710F87A
:10503000A0EB080151453BD8B068616800F00C0056
:10504000B0EB810FF2D12068810714D5400703D55A
:10505000B06840F4E060B0602078000705D5B06823
:1050600020F4605040F4E060B060B068A16820F0C7
:10507000F000084304E0802F03D1B06820F0F00076
:10508000B060D9F80010484601F00F01A94217D9C5
:105090000168C84621F00F0129430160FEF7D8FFDF
:1050A0000746D14606E0FEF7D3FFC11B494501D9AB
:1050B00003207BE7D8F8000000F00F00A842F2D1EF
:1050C0002078400705D5B068E16820F4E060084327
:1050D000B0602078000706D5B068216920F46050E0
:1050E00040EAC100B06000F065F8B1680C4AC1F355
:1050F0000311515C01F01F01C8400A4908600A48C9
:105100000068BDE8F047FEF7C1BF00000020024084
:105110000010024000B4C4040024F40000127A001D
:1051200004AA000884000020780000200F220260FA
:105130000C4A936803F003034360936803F0F003A1
:105140008360936803F4E063C36092684FF4E063A4
:1051500003EAD20202610448006800F00F00086010
:105160007047000000100240002002400548064938
:1051700000688968054AC1F30221515C01F01F01F2
:10518000C8407047840000200010024014AA0008A4
:105190000548064900688968054AC1F3C221515C87
:1051A00001F01F01C8407047840000200010024039
:1051B00014AA0008184A10B59068C0F38101174876
:1051C00001290BD091684410C1F38101022906D056
:1051D0009168C1F38101032903D0002010BD20464E
:1051E00010BDD16801F00303D168C1F30311491C5C
:1051F000032B02D0B0FBF1F001E0B4FBF1F0D16879
:10520000C1F306214843D168C1F34161491C4900FB
:10521000B0FBF1F010BD0000001002400024F400CB
:105220002DE9F843040078D02078F54DC00745D02B
:10523000A868E96800F00C0001F003010C2802D016
:10524000082817D001E0032914D06068B0F5803F2A
:1052500017D0B0F5A02F286817D020F48030286030
:10526000286820F4802028606068D8B1FEF7F0FE3E
:10527000064613E02868800320D560680028D2D055
:105280001CE0286840F48030EDE740F4802028607E
:10529000F7E7FEF7DDFE801B64286ED828688003E0
:1052A000F7D50BE0FEF7D4FE064604E0FEF7D0FE8D
:1052B000801B6428F1D828688003F7D42078800701
:1052C0004BD5A868E96800F00C0001F003010C2838
:1052D00002D004280DD001E002290AD0E06800289D
:1052E00028682BD040F480702860FEF7B1FE064697
:1052F00019E02868400502D5E068002893D0686866
:10530000217C20F0FE4040EA01606860BD480068F2
:10531000FEF7BCFE002800D11FE06DE1FEF798FE0D
:10532000801B0228B9D828684005F7D56868217C19
:1053300020F0FE4040EA016068600EE020F48070DA
:105340002860FEF785FE064604E0FEF781FE801B1E
:105350000228A2D828684005F7D42078000728D56D
:1053600060690028D5F8940012D040F00100C5F81B
:105370009400FEF76DFE064605E08FE0FEF768FE3E
:10538000801B022889D8D5F894008007F6D510E054
:1053900020F00100C5F89400FEF75AFE064604E02E
:1053A000FEF756FE801B022878D8D5F894008007B7
:1053B000F6D42078400761D5A86D0027C00008D436
:1053C000A86D40F08050A865A86D012700F08050BE
:1053D00000908D480168C90511D40168804641F4E8
:1053E00080710160FEF734FE064604E0FEF730FEF1
:1053F000801B022852D8D8F80000C005F6D5A06856
:10540000012815D00528D5F8900016D020F001000D
:10541000C5F89000D5F8900020F00400C5F8900081
:10542000A06841F28838B8B1FEF712FE06460EE0D9
:10543000D5F8900040F00100F0E740F00400C5F816
:105440009000F5E7FEF704FE811B414526D8D5F80C
:1054500090008007F6D50CE0FEF7FAFD064604E062
:10546000FEF7F6FD811B414518D8D5F8900080075E
:10547000F6D41FB1A86D20F08050A8652078800672
:1054800028D5A0690028D5F8980012D040F0010076
:10549000C5F89800FEF7DCFD064605E072E0FEF771
:1054A000D7FD801B02286DD8D5F898008007F6D567
:1054B00010E020F00100C5F89800FEF7C9FD06468F
:1054C00004E0FEF7C5FD801B02285BD8D5F89800E4
:1054D0008007F6D4E069E8B3A968C1F38101032924
:1054E0005BD00228286820F08070286003D0FEF787
:1054F000AFFD044649E0FEF7ABFD064604E0FEF7CB
:10550000A7FD801B02283DD828688001F7D4F4E964
:1055100008016FF00F0202EB01110843218A5204C7
:10552000490802EB4151A26841EA02210843217D6A
:105530004FF07E42490802EB41610843217B40EA7B
:10554000C160E968314A11400843E860286840F0CA
:10555000807000E052E02860E86840F08070E86009
:10556000FEF776FD044604E0FEF772FD001B0228FC
:1055700008D828688001F7D540E0FEF769FD001BD8
:10558000022802D90320BDE8F88328688001F4D4FA
:10559000E8681F490840E86030E00128F3D0E86877
:1055A000226A00F00301914226D1616A00F0F00204
:1055B0000901103991421FD1A26A00F4FE41B1EBFA
:1055C000022F19D194F82C2000F07841B1EBC26F72
:1055D00012D1218E00F4C00249084905A1F500113D
:1055E000914209D194F8341000F0C060490849068E
:1055F000A1F10071814201D00120C4E70020C2E77F
:105600000010024078000020007000400C809F01D4
:10561000FCFFEEFE70B5040003D0607A002510B1E7
:1056200005E0012070BD2572204600F013F802202D
:10563000607220680168626821F00801114301600E
:105640002068016841F00401016001206072E5609A
:10565000002070BD10B592B0044644216846FBF7A7
:10566000F3F90D492068884213D14FF4804000902F
:1056700000200E906846FFF71DFB08B1FDF70CF8FF
:105680000648C16C41F08061C164C06C00F080606C
:10569000119012B010BD000000080650001002402A
:1056A00070B5040009D0606A002540B125616561CC
:1056B000A56294F85D0040B10CE0012070BD606807
:1056C000B0F5827FF4D0E561F2E784F85C502046C3
:1056D00000F05CF8022084F85D002068016821F089
:1056E00040010160E0684FF4E062904201D900217E
:1056F00001E04FF48051B0F5706F02D0904200D0BD
:10570000A562A088228900F4827002F4044210434A
:10571000227C02F002021043227D02F001021043BB
:10572000228B02F400721043227F02F038021043F1
:1057300094F8202002F080021043228D02F40052DF
:10574000104322681060A069042202EA104094F815
:10575000242001F4805102F01002104394F8342008
:1057600002F008021043A28902F470621043084359
:10577000216848602068C16921F40061C161256623
:10578000012084F85D00002070BD000030B587B0B6
:10579000044614216846FBF757F9214D2168002281
:1057A000204802230324A9421AD1016E41F48051FA
:1057B0000166016E01F480510591C16C41F0010157
:1057C000C164C06C029200F001000590E020CDE9B8
:1057D00000030520CDE9034069464FF090401BE0EF
:1057E000114DA9421AD1816D41F400418165816D4D
:1057F00001F400410591C16C41F00201C164C06C2B
:10580000029200F0020005903820CDE90003062046
:10581000CDE9034069460548FEF73CFB07B030BDC3
:105820000030014000100240003C004000040048ED
:10583000704770477047000030B590F83C20012A4F
:1058400042D0012280F83C20CA688B6822F4407262
:105850001A434B6822F480621A430B6822F40062F8
:105860001A430B6922F480521A434B6922F4005206
:105870001A430B6B22F480421A430B8B22F47022E2
:1058800042EA0342CB6922F080521A430F4D03686B
:105890000024AB4202D00E4DAB4210D10D8D22F44C
:1058A000700242EA05520D6A22F080722A434D6A64
:1058B00022F000722A43C96A22F000520A435A6455
:1058C00080F83C40002030BD022030BD002C01405B
:1058D000003401407047704770470000F0B590F801
:1058E0003C20012A3AD0012580F83C50022280F861
:1058F0003D2003685A689C68194E1A4FB34201D084
:10590000BB4204D122F4700C4A6842EA0C02DFF870
:1059100058C002EA0C02D1F800C04CEA020CC3F8ED
:1059200004C00268B2420DD0B2F1804F0AD00F4BD2
:105930009A4207D00E4B9A4204D0BA4202D00D4B85
:105940009A4204D1896824F080031943916080F859
:105950003D50002180F83C100846F0BD0220F0BD0B
:10596000002C0140003401408FFFFFFD0004004087
:10597000000800400040014010B5044649B1042928
:105980000AD008290BD094F8470001280AD001203A
:1059900010BD94F84400F8E794F84500F5E794F852
:1059A0004600F2E7022079B3042931D0082932D029
:1059B00084F847000422206801F03FFF2068416C12
:1059C00041F4004141641549206888420ED0B0F18D
:1059D000804F0BD01249884208D01249884205D026
:1059E0001149884202D01149884207D18168104A82
:1059F0001140062906D0B1F5803F03D0016841F07F
:105A000001010160002010BDFFE784F84400D1E7E8
:105A100084F84500CEE784F84600CBE7002C01402F
:105A200000040040000800400034014000400140F4
:105A300007000100704710B5040003D094F83D0042
:105A400010B107E0012010BD002084F83C00204682
:105A500000F022F8022084F83D00211D206801F0AA
:105A600081FE012084F8480084F83E0084F83F005D
:105A700084F8400084F8410084F8420084F8430030
:105A800084F8440084F8450084F8460084F8470010
:105A900084F83D00002010BD7047000090F83D10D4
:105AA000012901D001207047022180F83D100168D2
:105AB000CA6842F00102CA600068104988420ED0EC
:105AC000B0F1804F0BD00E49884208D00D49884272
:105AD00005D00D49884202D00C49884207D181681F
